{
  "contractName": "FlightSuretyApp",
  "abi": [
    {
      "constant": true,
      "inputs": [],
      "name": "REGISTRATION_FEE",
      "outputs": [
        {
          "name": "",
          "type": "uint256"
        }
      ],
      "payable": false,
      "stateMutability": "view",
      "type": "function"
    },
    {
      "constant": true,
      "inputs": [],
      "name": "MAX_INSURANCE_COST",
      "outputs": [
        {
          "name": "",
          "type": "uint256"
        }
      ],
      "payable": false,
      "stateMutability": "view",
      "type": "function"
    },
    {
      "constant": true,
      "inputs": [],
      "name": "contractOwner",
      "outputs": [
        {
          "name": "",
          "type": "address"
        }
      ],
      "payable": false,
      "stateMutability": "view",
      "type": "function"
    },
    {
      "constant": true,
      "inputs": [],
      "name": "minimumFunds",
      "outputs": [
        {
          "name": "",
          "type": "uint256"
        }
      ],
      "payable": false,
      "stateMutability": "view",
      "type": "function"
    },
    {
      "constant": true,
      "inputs": [],
      "name": "INSURANCE_RETURN_PERCENTAGE",
      "outputs": [
        {
          "name": "",
          "type": "uint256"
        }
      ],
      "payable": false,
      "stateMutability": "view",
      "type": "function"
    },
    {
      "inputs": [
        {
          "name": "dataContract",
          "type": "address"
        }
      ],
      "payable": false,
      "stateMutability": "nonpayable",
      "type": "constructor"
    },
    {
      "anonymous": false,
      "inputs": [
        {
          "indexed": true,
          "name": "airline",
          "type": "address"
        },
        {
          "indexed": true,
          "name": "indexedFlight",
          "type": "string"
        },
        {
          "indexed": false,
          "name": "flight",
          "type": "string"
        },
        {
          "indexed": false,
          "name": "depTime",
          "type": "uint256"
        },
        {
          "indexed": false,
          "name": "arrivalTime",
          "type": "uint256"
        },
        {
          "indexed": false,
          "name": "depAirport",
          "type": "string"
        },
        {
          "indexed": false,
          "name": "arrAirport",
          "type": "string"
        }
      ],
      "name": "FlightReg",
      "type": "event"
    },
    {
      "anonymous": false,
      "inputs": [
        {
          "indexed": false,
          "name": "airline",
          "type": "address"
        },
        {
          "indexed": false,
          "name": "flight",
          "type": "string"
        },
        {
          "indexed": false,
          "name": "depTime",
          "type": "uint256"
        },
        {
          "indexed": false,
          "name": "status",
          "type": "uint8"
        }
      ],
      "name": "FlightStatusInfo",
      "type": "event"
    },
    {
      "anonymous": false,
      "inputs": [
        {
          "indexed": false,
          "name": "airline",
          "type": "address"
        },
        {
          "indexed": false,
          "name": "flight",
          "type": "string"
        },
        {
          "indexed": false,
          "name": "depTime",
          "type": "uint256"
        },
        {
          "indexed": false,
          "name": "status",
          "type": "uint8"
        }
      ],
      "name": "OracleReport",
      "type": "event"
    },
    {
      "anonymous": false,
      "inputs": [
        {
          "indexed": false,
          "name": "index",
          "type": "uint8"
        },
        {
          "indexed": false,
          "name": "airline",
          "type": "address"
        },
        {
          "indexed": false,
          "name": "flight",
          "type": "string"
        },
        {
          "indexed": false,
          "name": "depTime",
          "type": "uint256"
        }
      ],
      "name": "OracleRequest",
      "type": "event"
    },
    {
      "anonymous": false,
      "inputs": [
        {
          "indexed": false,
          "name": "account",
          "type": "address"
        },
        {
          "indexed": false,
          "name": "indexes",
          "type": "uint8[3]"
        }
      ],
      "name": "OracleRegistered",
      "type": "event"
    },
    {
      "constant": true,
      "inputs": [],
      "name": "isOperational",
      "outputs": [
        {
          "name": "",
          "type": "bool"
        }
      ],
      "payable": false,
      "stateMutability": "view",
      "type": "function"
    },
    {
      "constant": true,
      "inputs": [],
      "name": "isAirline",
      "outputs": [
        {
          "name": "",
          "type": "bool"
        }
      ],
      "payable": false,
      "stateMutability": "view",
      "type": "function"
    },
    {
      "constant": false,
      "inputs": [
        {
          "name": "_Amount",
          "type": "uint256"
        }
      ],
      "name": "updateMinimumFunds",
      "outputs": [],
      "payable": false,
      "stateMutability": "nonpayable",
      "type": "function"
    },
    {
      "constant": false,
      "inputs": [
        {
          "name": "account",
          "type": "address"
        },
        {
          "name": "name",
          "type": "string"
        }
      ],
      "name": "registerAirline",
      "outputs": [
        {
          "name": "success",
          "type": "bool"
        },
        {
          "name": "votes",
          "type": "uint256"
        }
      ],
      "payable": false,
      "stateMutability": "nonpayable",
      "type": "function"
    },
    {
      "constant": false,
      "inputs": [
        {
          "name": "newName",
          "type": "string"
        }
      ],
      "name": "updateAirlineName",
      "outputs": [],
      "payable": false,
      "stateMutability": "nonpayable",
      "type": "function"
    },
    {
      "constant": false,
      "inputs": [],
      "name": "fund",
      "outputs": [],
      "payable": true,
      "stateMutability": "payable",
      "type": "function"
    },
    {
      "constant": false,
      "inputs": [
        {
          "name": "flight",
          "type": "string"
        },
        {
          "name": "depTime",
          "type": "uint256"
        },
        {
          "name": "arrivalTime",
          "type": "uint256"
        },
        {
          "name": "depAirport",
          "type": "string"
        },
        {
          "name": "arrAirport",
          "type": "string"
        }
      ],
      "name": "registerFlight",
      "outputs": [],
      "payable": false,
      "stateMutability": "nonpayable",
      "type": "function"
    },
    {
      "constant": true,
      "inputs": [
        {
          "name": "airline",
          "type": "address"
        },
        {
          "name": "flight",
          "type": "string"
        },
        {
          "name": "depTime",
          "type": "uint256"
        }
      ],
      "name": "getFlightStatusInfo",
      "outputs": [
        {
          "name": "statusCode",
          "type": "uint256"
        },
        {
          "name": "updateTimestamp",
          "type": "uint256"
        }
      ],
      "payable": false,
      "stateMutability": "view",
      "type": "function"
    },
    {
      "constant": false,
      "inputs": [
        {
          "name": "airline",
          "type": "address"
        },
        {
          "name": "flight",
          "type": "string"
        },
        {
          "name": "depTime",
          "type": "uint256"
        }
      ],
      "name": "fetchFlightStatus",
      "outputs": [],
      "payable": false,
      "stateMutability": "nonpayable",
      "type": "function"
    },
    {
      "constant": false,
      "inputs": [
        {
          "name": "airline",
          "type": "address"
        },
        {
          "name": "flight",
          "type": "string"
        },
        {
          "name": "depTime",
          "type": "uint256"
        }
      ],
      "name": "buyInsurance",
      "outputs": [],
      "payable": true,
      "stateMutability": "payable",
      "type": "function"
    },
    {
      "constant": false,
      "inputs": [
        {
          "name": "airline",
          "type": "address"
        },
        {
          "name": "flight",
          "type": "string"
        },
        {
          "name": "depTime",
          "type": "uint256"
        }
      ],
      "name": "claimCompensation",
      "outputs": [],
      "payable": false,
      "stateMutability": "nonpayable",
      "type": "function"
    },
    {
      "constant": false,
      "inputs": [],
      "name": "withdrawCompensation",
      "outputs": [],
      "payable": false,
      "stateMutability": "nonpayable",
      "type": "function"
    },
    {
      "constant": true,
      "inputs": [
        {
          "name": "airline",
          "type": "address"
        },
        {
          "name": "flight",
          "type": "string"
        },
        {
          "name": "depTime",
          "type": "uint256"
        }
      ],
      "name": "getAmountPaidByInsuree",
      "outputs": [
        {
          "name": "",
          "type": "uint256"
        }
      ],
      "payable": false,
      "stateMutability": "view",
      "type": "function"
    },
    {
      "constant": true,
      "inputs": [],
      "name": "getAmountToBeReceived",
      "outputs": [
        {
          "name": "",
          "type": "uint256"
        }
      ],
      "payable": false,
      "stateMutability": "view",
      "type": "function"
    },
    {
      "constant": false,
      "inputs": [],
      "name": "registerOracle",
      "outputs": [],
      "payable": true,
      "stateMutability": "payable",
      "type": "function"
    },
    {
      "constant": true,
      "inputs": [],
      "name": "getMyIndexes",
      "outputs": [
        {
          "name": "",
          "type": "uint8[3]"
        }
      ],
      "payable": false,
      "stateMutability": "view",
      "type": "function"
    },
    {
      "constant": false,
      "inputs": [
        {
          "name": "index",
          "type": "uint8"
        },
        {
          "name": "airline",
          "type": "address"
        },
        {
          "name": "flight",
          "type": "string"
        },
        {
          "name": "depTime",
          "type": "uint256"
        },
        {
          "name": "statusCode",
          "type": "uint8"
        }
      ],
      "name": "submitOracleResponse",
      "outputs": [],
      "payable": false,
      "stateMutability": "nonpayable",
      "type": "function"
    }
  ],
  "bytecode": "0x6080604052678ac7230489e800006000556000600560146101000a81548160ff021916908360ff16021790555034801561003857600080fd5b506040516020806200487a8339810180604052602081101561005957600080fd5b810190808051906020019092919050505033600160006101000a81548173ffffffffffffffffffffffffffffffffffffffff021916908373ffffffffffffffffffffffffffffffffffffffff16021790555080600560006101000a81548173ffffffffffffffffffffffffffffffffffffffff021916908373ffffffffffffffffffffffffffffffffffffffff1602179055505061477d80620000fd6000396000f3fe608060405260043610610152576000357c010000000000000000000000000000000000000000000000000000000090048063b60d4288116100c8578063d4debf0a1161008c578063d4debf0a14610749578063e2e5ae4714610774578063eaa66fa8146108b8578063ee38a749146108e7578063f83f11c0146109ac578063fe63e66d14610a5c57610152565b8063b60d4288146105c4578063c10f2700146105ce578063cd905dff14610698578063ce606ee0146106c7578063d18fba0e1461071e57610152565b80635f1cc0e61161011a5780635f1cc0e61461039057806364b4f751146103e357806364ed832e1461040e57806367ee25ea146104be57806387a15dc9146104e9578063ab2bd10b1461050057610152565b8063117011ac146101575780632f6721d0146101dd578063339d25901461028057806359e53fd81461028a5780635e61bf8a14610355575b600080fd5b34801561016357600080fd5b506101db6004803603602081101561017a57600080fd5b810190808035906020019064010000000081111561019757600080fd5b8201836020820111156101a957600080fd5b803590602001918460018302840111640100000000831117156101cb57600080fd5b9091929391929390505050610a87565b005b61027e600480360360608110156101f357600080fd5b81019080803573ffffffffffffffffffffffffffffffffffffffff1690602001909291908035906020019064010000000081111561023057600080fd5b82018360208201111561024257600080fd5b8035906020019184600183028401116401000000008311171561026457600080fd5b909192939192939080359060200190929190505050610dd8565b005b6102886112bb565b005b34801561029657600080fd5b50610338600480360360608110156102ad57600080fd5b81019080803573ffffffffffffffffffffffffffffffffffffffff169060200190929190803590602001906401000000008111156102ea57600080fd5b8201836020820111156102fc57600080fd5b8035906020019184600183028401116401000000008311171561031e57600080fd5b90919293919293908035906020019092919050505061153b565b604051808381526020018281526020019250505060405180910390f35b34801561036157600080fd5b5061038e6004803603602081101561037857600080fd5b81019080803590602001909291905050506115e0565b005b34801561039c57600080fd5b506103a561170e565b6040518082600360200280838360005b838110156103d05780820151818401526020810190506103b5565b5050505090500191505060405180910390f35b3480156103ef57600080fd5b506103f8611883565b6040518082815260200191505060405180910390f35b34801561041a57600080fd5b506104bc6004803603606081101561043157600080fd5b81019080803573ffffffffffffffffffffffffffffffffffffffff1690602001909291908035906020019064010000000081111561046e57600080fd5b82018360208201111561048057600080fd5b803590602001918460018302840111640100000000831117156104a257600080fd5b90919293919293908035906020019092919050505061188f565b005b3480156104ca57600080fd5b506104d3611bdc565b6040518082815260200191505060405180910390f35b3480156104f557600080fd5b506104fe611be8565b005b34801561050c57600080fd5b506105ae6004803603606081101561052357600080fd5b81019080803573ffffffffffffffffffffffffffffffffffffffff1690602001909291908035906020019064010000000081111561056057600080fd5b82018360208201111561057257600080fd5b8035906020019184600183028401116401000000008311171561059457600080fd5b909192939192939080359060200190929190505050611e8b565b6040518082815260200191505060405180910390f35b6105cc6120ef565b005b3480156105da57600080fd5b50610696600480360360a08110156105f157600080fd5b81019080803560ff169060200190929190803573ffffffffffffffffffffffffffffffffffffffff1690602001909291908035906020019064010000000081111561063b57600080fd5b82018360208201111561064d57600080fd5b8035906020019184600183028401116401000000008311171561066f57600080fd5b909192939192939080359060200190929190803560ff16906020019092919050505061240a565b005b3480156106a457600080fd5b506106ad612962565b604051808215151515815260200191505060405180910390f35b3480156106d357600080fd5b506106dc612a28565b604051808273ffffffffffffffffffffffffffffffffffffffff1673ffffffffffffffffffffffffffffffffffffffff16815260200191505060405180910390f35b34801561072a57600080fd5b50610733612a4e565b6040518082815260200191505060405180910390f35b34801561075557600080fd5b5061075e612b4b565b6040518082815260200191505060405180910390f35b34801561078057600080fd5b506108b6600480360360a081101561079757600080fd5b81019080803590602001906401000000008111156107b457600080fd5b8201836020820111156107c657600080fd5b803590602001918460018302840111640100000000831117156107e857600080fd5b909192939192939080359060200190929190803590602001909291908035906020019064010000000081111561081d57600080fd5b82018360208201111561082f57600080fd5b8035906020019184600183028401116401000000008311171561085157600080fd5b90919293919293908035906020019064010000000081111561087257600080fd5b82018360208201111561088457600080fd5b803590602001918460018302840111640100000000831117156108a657600080fd5b9091929391929390505050612b51565b005b3480156108c457600080fd5b506108cd61329a565b604051808215151515815260200191505060405180910390f35b3480156108f357600080fd5b5061098b6004803603604081101561090a57600080fd5b81019080803573ffffffffffffffffffffffffffffffffffffffff1690602001909291908035906020019064010000000081111561094757600080fd5b82018360208201111561095957600080fd5b8035906020019184600183028401116401000000008311171561097b57600080fd5b9091929391929390505050613397565b60405180831515151581526020018281526020019250505060405180910390f35b3480156109b857600080fd5b50610a5a600480360360608110156109cf57600080fd5b81019080803573ffffffffffffffffffffffffffffffffffffffff16906020019092919080359060200190640100000000811115610a0c57600080fd5b820183602082011115610a1e57600080fd5b80359060200191846001830284011164010000000083111715610a4057600080fd5b909192939192939080359060200190929190505050613bca565b005b348015610a6857600080fd5b50610a71613e45565b6040518082815260200191505060405180910390f35b610a8f612962565b1515610ae6576040517f08c379a00000000000000000000000000000000000000000000000000000000081526004018080602001828103825260258152602001806146c66025913960400191505060405180910390fd5b600560009054906101000a900473ffffffffffffffffffffffffffffffffffffffff1673ffffffffffffffffffffffffffffffffffffffff16630e248a11336040518263ffffffff167c0100000000000000000000000000000000000000000000000000000000028152600401808273ffffffffffffffffffffffffffffffffffffffff1673ffffffffffffffffffffffffffffffffffffffff16815260200191505060206040518083038186803b158015610ba157600080fd5b505afa158015610bb5573d6000803e3d6000fd5b505050506040513d6020811015610bcb57600080fd5b81019080805190602001909291905050501515610c50576040517f08c379a000000000000000000000000000000000000000000000000000000000815260040180806020018281038252601c8152602001807f53656e646572206e65656420746f20626520616e204169726c696e650000000081525060200191505060405180910390fd5b600082829050141515610ccb576040517f08c379a00000000000000000000000000000000000000000000000000000000081526004018080602001828103825260108152602001807f4e616d652069732072657175697265640000000000000000000000000000000081525060200191505060405180910390fd5b600560009054906101000a900473ffffffffffffffffffffffffffffffffffffffff1673ffffffffffffffffffffffffffffffffffffffff1663b464b6e13384846040518463ffffffff167c0100000000000000000000000000000000000000000000000000000000028152600401808473ffffffffffffffffffffffffffffffffffffffff1673ffffffffffffffffffffffffffffffffffffffff168152602001806020018281038252848482818152602001925080828437600081840152601f19601f820116905080830192505050945050505050600060405180830381600087803b158015610dbc57600080fd5b505af1158015610dd0573d6000803e3d6000fd5b505050505050565b610de0612962565b1515610e37576040517f08c379a00000000000000000000000000000000000000000000000000000000081526004018080602001828103825260258152602001806146c66025913960400191505060405180910390fd5b670de0b6b3a76400003411151515610e9a576040517f08c379a000000000000000000000000000000000000000000000000000000000815260040180806020018281038252602381526020018061470e6023913960400191505060405180910390fd5b600560009054906101000a900473ffffffffffffffffffffffffffffffffffffffff1673ffffffffffffffffffffffffffffffffffffffff16630e248a11336040518263ffffffff167c0100000000000000000000000000000000000000000000000000000000028152600401808273ffffffffffffffffffffffffffffffffffffffff1673ffffffffffffffffffffffffffffffffffffffff16815260200191505060206040518083038186803b158015610f5557600080fd5b505afa158015610f69573d6000803e3d6000fd5b505050506040513d6020811015610f7f57600080fd5b8101908080519060200190929190505050151515611005576040517f08c379a000000000000000000000000000000000000000000000000000000000815260040180806020018281038252601f8152602001807f4974206e6f74207065726d6974656420746f204169726c696e6573206275790081525060200191505060405180910390fd5b804210151561107c576040517f08c379a000000000000000000000000000000000000000000000000000000000815260040180806020018281038252601d8152602001807f427579206265666f7265207363686564756c652064657061727475726500000081525060200191505060405180910390fd5b60006110cd8585858080601f016020809104026020016040519081016040528093929190818152602001838380828437600081840152601f19601f8201169050808301925050505050505084613e4a565b9050600115156004600083815260200190815260200160002060000160009054906101000a900460ff16151514151561116e576040517f08c379a00000000000000000000000000000000000000000000000000000000081526004018080602001828103825260158152602001807f466c69676874206e6f742072656769737465726564000000000000000000000081525060200191505060405180910390fd5b600560009054906101000a900473ffffffffffffffffffffffffffffffffffffffff1673ffffffffffffffffffffffffffffffffffffffff1663351831703433888888886040518763ffffffff167c0100000000000000000000000000000000000000000000000000000000028152600401808673ffffffffffffffffffffffffffffffffffffffff1673ffffffffffffffffffffffffffffffffffffffff1681526020018573ffffffffffffffffffffffffffffffffffffffff1673ffffffffffffffffffffffffffffffffffffffff168152602001806020018381526020018281038252858582818152602001925080828437600081840152601f19601f82011690508083019250505096505050505050506000604051808303818588803b15801561129b57600080fd5b505af11580156112af573d6000803e3d6000fd5b50505050505050505050565b600660003373ffffffffffffffffffffffffffffffffffffffff1673ffffffffffffffffffffffffffffffffffffffff16815260200190815260200160002060000160009054906101000a900460ff16151515611380576040517f08c379a00000000000000000000000000000000000000000000000000000000081526004018080602001828103825260198152602001807f4f7261636c6520616c726561647920726567697374657265640000000000000081525060200191505060405180910390fd5b670de0b6b3a76400003410151515611400576040517f08c379a000000000000000000000000000000000000000000000000000000000815260040180806020018281038252601c8152602001807f526567697374726174696f6e206665652069732072657175697265640000000081525060200191505060405180910390fd5b611408614468565b61141133613f14565b9050604080519081016040528060011515815260200182815250600660003373ffffffffffffffffffffffffffffffffffffffff1673ffffffffffffffffffffffffffffffffffffffff16815260200190815260200160002060008201518160000160006101000a81548160ff0219169083151502179055506020820151816001019060036114a192919061448b565b509050507f1bdc0d8a09795c58f7a50cd047b708db1292c3020b8935100d4e55d8c50d0dfc3382604051808373ffffffffffffffffffffffffffffffffffffffff1673ffffffffffffffffffffffffffffffffffffffff16815260200182600360200280838360005b8381101561152557808201518184015260208101905061150a565b505050509050019250505060405180910390a150565b600080600061158f8787878080601f016020809104026020016040519081016040528093929190818152602001838380828437600081840152601f19601f8201169050808301925050505050505086613e4a565b90506004600082815260200190815260200160002060000160019054906101000a900460ff1660046000838152602001908152602001600020600101548160ff169150925092505094509492505050565b600160009054906101000a900473ffffffffffffffffffffffffffffffffffffffff1673ffffffffffffffffffffffffffffffffffffffff163373ffffffffffffffffffffffffffffffffffffffff161415156116a5576040517f08c379a000000000000000000000000000000000000000000000000000000000815260040180806020018281038252601c8152602001807f43616c6c6572206973206e6f7420636f6e7472616374206f776e65720000000081525060200191505060405180910390fd5b6116ad612962565b1515611704576040517f08c379a00000000000000000000000000000000000000000000000000000000081526004018080602001828103825260258152602001806146c66025913960400191505060405180910390fd5b8060008190555050565b611716614468565b600660003373ffffffffffffffffffffffffffffffffffffffff1673ffffffffffffffffffffffffffffffffffffffff16815260200190815260200160002060000160009054906101000a900460ff1615156117da576040517f08c379a000000000000000000000000000000000000000000000000000000000815260040180806020018281038252601b8152602001807f4e6f74207265676973746572656420617320616e206f7261636c65000000000081525060200191505060405180910390fd5b600660003373ffffffffffffffffffffffffffffffffffffffff1673ffffffffffffffffffffffffffffffffffffffff168152602001908152602001600020600101600380602002604051908101604052809291908260038015611879576020028201916000905b82829054906101000a900460ff1660ff16815260200190600101906020826000010492830192600103820291508084116118425790505b5050505050905090565b670de0b6b3a764000081565b611897612962565b15156118ee576040517f08c379a00000000000000000000000000000000000000000000000000000000081526004018080602001828103825260258152602001806146c66025913960400191505060405180910390fd5b600061193f8585858080601f016020809104026020016040519081016040528093929190818152602001838380828437600081840152601f19601f8201169050808301925050505050505084613e4a565b9050601460ff166004600083815260200190815260200160002060000160019054906101000a900460ff1660ff161415156119c5576040517f08c379a00000000000000000000000000000000000000000000000000000000081526004018080602001828103825260238152602001806146396023913960400191505060405180910390fd5b60046000828152602001908152602001600020600301546004600083815260200190815260200160002060010154111515611a4b576040517f08c379a00000000000000000000000000000000000000000000000000000000081526004018080602001828103825260338152602001806146936033913960400191505060405180910390fd5b600460008281526020019081526020016000206003015442111515611abb576040517f08c379a000000000000000000000000000000000000000000000000000000000815260040180806020018281038252603781526020018061465c6037913960400191505060405180910390fd5b600560009054906101000a900473ffffffffffffffffffffffffffffffffffffffff1673ffffffffffffffffffffffffffffffffffffffff16632adf4c5b6096878787876040518663ffffffff167c0100000000000000000000000000000000000000000000000000000000028152600401808681526020018573ffffffffffffffffffffffffffffffffffffffff1673ffffffffffffffffffffffffffffffffffffffff168152602001806020018381526020018281038252858582818152602001925080828437600081840152601f19601f8201169050808301925050509650505050505050600060405180830381600087803b158015611bbd57600080fd5b505af1158015611bd1573d6000803e3d6000fd5b505050505050505050565b670de0b6b3a764000081565b611bf0612962565b1515611c47576040517f08c379a00000000000000000000000000000000000000000000000000000000081526004018080602001828103825260258152602001806146c66025913960400191505060405180910390fd5b6000600560009054906101000a900473ffffffffffffffffffffffffffffffffffffffff1673ffffffffffffffffffffffffffffffffffffffff1663ba11d929336040518263ffffffff167c0100000000000000000000000000000000000000000000000000000000028152600401808273ffffffffffffffffffffffffffffffffffffffff1673ffffffffffffffffffffffffffffffffffffffff16815260200191505060206040518083038186803b158015611d0457600080fd5b505afa158015611d18573d6000803e3d6000fd5b505050506040513d6020811015611d2e57600080fd5b8101908080519060200190929190505050111515611db4576040517f08c379a000000000000000000000000000000000000000000000000000000000815260040180806020018281038252601e8152602001807f4e6f20636f6d70656e736174696f6e20746f206265207265636569766564000081525060200191505060405180910390fd5b600560009054906101000a900473ffffffffffffffffffffffffffffffffffffffff1673ffffffffffffffffffffffffffffffffffffffff16630c11dedd336040518263ffffffff167c0100000000000000000000000000000000000000000000000000000000028152600401808273ffffffffffffffffffffffffffffffffffffffff1673ffffffffffffffffffffffffffffffffffffffff168152602001915050600060405180830381600087803b158015611e7157600080fd5b505af1158015611e85573d6000803e3d6000fd5b50505050565b600080611edd8686868080601f016020809104026020016040519081016040528093929190818152602001838380828437600081840152601f19601f8201169050808301925050505050505085613e4a565b9050600115156004600083815260200190815260200160002060000160009054906101000a900460ff161515141515611f7e576040517f08c379a00000000000000000000000000000000000000000000000000000000081526004018080602001828103825260158152602001807f466c69676874206e6f742072656769737465726564000000000000000000000081525060200191505060405180910390fd5b600560009054906101000a900473ffffffffffffffffffffffffffffffffffffffff1673ffffffffffffffffffffffffffffffffffffffff16631f428b4b33888888886040518663ffffffff167c0100000000000000000000000000000000000000000000000000000000028152600401808673ffffffffffffffffffffffffffffffffffffffff1673ffffffffffffffffffffffffffffffffffffffff1681526020018573ffffffffffffffffffffffffffffffffffffffff1673ffffffffffffffffffffffffffffffffffffffff168152602001806020018381526020018281038252858582818152602001925080828437600081840152601f19601f820116905080830192505050965050505050505060206040518083038186803b1580156120a957600080fd5b505afa1580156120bd573d6000803e3d6000fd5b505050506040513d60208110156120d357600080fd5b8101908080519060200190929190505050915050949350505050565b6120f7612962565b151561214e576040517f08c379a00000000000000000000000000000000000000000000000000000000081526004018080602001828103825260258152602001806146c66025913960400191505060405180910390fd5b600560009054906101000a900473ffffffffffffffffffffffffffffffffffffffff1673ffffffffffffffffffffffffffffffffffffffff16630e248a11336040518263ffffffff167c0100000000000000000000000000000000000000000000000000000000028152600401808273ffffffffffffffffffffffffffffffffffffffff1673ffffffffffffffffffffffffffffffffffffffff16815260200191505060206040518083038186803b15801561220957600080fd5b505afa15801561221d573d6000803e3d6000fd5b505050506040513d602081101561223357600080fd5b810190808051906020019092919050505015156122b8576040517f08c379a000000000000000000000000000000000000000000000000000000000815260040180806020018281038252601c8152602001807f53656e646572206e65656420746f20626520616e204169726c696e650000000081525060200191505060405180910390fd5b6000543410151515612332576040517f08c379a00000000000000000000000000000000000000000000000000000000081526004018080602001828103825260108152602001807f4e6f7420656e6f7567682066756e64730000000000000000000000000000000081525060200191505060405180910390fd5b600560009054906101000a900473ffffffffffffffffffffffffffffffffffffffff1673ffffffffffffffffffffffffffffffffffffffff16632302440834336040518363ffffffff167c0100000000000000000000000000000000000000000000000000000000028152600401808273ffffffffffffffffffffffffffffffffffffffff1673ffffffffffffffffffffffffffffffffffffffff1681526020019150506000604051808303818588803b1580156123ef57600080fd5b505af1158015612403573d6000803e3d6000fd5b5050505050565b8560ff16600660003373ffffffffffffffffffffffffffffffffffffffff1673ffffffffffffffffffffffffffffffffffffffff168152602001908152602001600020600101600060038110151561245e57fe5b602091828204019190069054906101000a900460ff1660ff1614806124ed57508560ff16600660003373ffffffffffffffffffffffffffffffffffffffff1673ffffffffffffffffffffffffffffffffffffffff16815260200190815260200160002060010160016003811015156124d257fe5b602091828204019190069054906101000a900460ff1660ff16145b8061256257508560ff16600660003373ffffffffffffffffffffffffffffffffffffffff1673ffffffffffffffffffffffffffffffffffffffff168152602001908152602001600020600101600260038110151561254757fe5b602091828204019190069054906101000a900460ff1660ff16145b15156125b9576040517f08c379a00000000000000000000000000000000000000000000000000000000081526004018080602001828103825260238152602001806146eb6023913960400191505060405180910390fd5b60008686868686604051602001808660ff1660ff167f01000000000000000000000000000000000000000000000000000000000000000281526001018573ffffffffffffffffffffffffffffffffffffffff1673ffffffffffffffffffffffffffffffffffffffff166c0100000000000000000000000002815260140184848082843780830192505050828152602001955050505050506040516020818303038152906040528051906020012090506007600082815260200190815260200160002060000160149054906101000a900460ff1615156126e3576040517f08c379a000000000000000000000000000000000000000000000000000000000815260040180806020018281038252603e8152602001806145fb603e913960400191505060405180910390fd5b6007600082815260200190815260200160002060010160008360ff1660ff1681526020019081526020016000203390806001815401808255809150509060018203906000526020600020016000909192909190916101000a81548173ffffffffffffffffffffffffffffffffffffffff021916908373ffffffffffffffffffffffffffffffffffffffff160217905550507f43c853095c2752648493c88b4baac4d580d2594ffb00c6f1d4242d844514f7838686868686604051808673ffffffffffffffffffffffffffffffffffffffff1673ffffffffffffffffffffffffffffffffffffffff168152602001806020018481526020018360ff1660ff1681526020018281038252868682818152602001925080828437600081840152601f19601f820116905080830192505050965050505050505060405180910390a160036007600083815260200190815260200160002060010160008460ff1660ff16815260200190815260200160002080549050101515612959577fe23f5229de535c091e3b7bec2665f5d698192d3b31393066e8987b7a05076b6c8686868686604051808673ffffffffffffffffffffffffffffffffffffffff1673ffffffffffffffffffffffffffffffffffffffff168152602001806020018481526020018360ff1660ff1681526020018281038252868682818152602001925080828437600081840152601f19601f820116905080830192505050965050505050505060405180910390a16129588686868080601f016020809104026020016040519081016040528093929190818152602001838380828437600081840152601f19601f8201169050808301925050505050505085856140ba565b5b50505050505050565b6000600560009054906101000a900473ffffffffffffffffffffffffffffffffffffffff1673ffffffffffffffffffffffffffffffffffffffff1663cd905dff6040518163ffffffff167c010000000000000000000000000000000000000000000000000000000002815260040160206040518083038186803b1580156129e857600080fd5b505afa1580156129fc573d6000803e3d6000fd5b505050506040513d6020811015612a1257600080fd5b8101908080519060200190929190505050905090565b600160009054906101000a900473ffffffffffffffffffffffffffffffffffffffff1681565b6000600560009054906101000a900473ffffffffffffffffffffffffffffffffffffffff1673ffffffffffffffffffffffffffffffffffffffff1663ba11d929336040518263ffffffff167c0100000000000000000000000000000000000000000000000000000000028152600401808273ffffffffffffffffffffffffffffffffffffffff1673ffffffffffffffffffffffffffffffffffffffff16815260200191505060206040518083038186803b158015612b0b57600080fd5b505afa158015612b1f573d6000803e3d6000fd5b505050506040513d6020811015612b3557600080fd5b8101908080519060200190929190505050905090565b60005481565b612b59612962565b1515612bb0576040517f08c379a00000000000000000000000000000000000000000000000000000000081526004018080602001828103825260258152602001806146c66025913960400191505060405180910390fd5b4286111515612c27576040517f08c379a000000000000000000000000000000000000000000000000000000000815260040180806020018281038252601f8152602001807f466c69676874206e65656420746f20626520696e20746865206675747572650081525060200191505060405180910390fd5b600560009054906101000a900473ffffffffffffffffffffffffffffffffffffffff1673ffffffffffffffffffffffffffffffffffffffff16635689b249336040518263ffffffff167c0100000000000000000000000000000000000000000000000000000000028152600401808273ffffffffffffffffffffffffffffffffffffffff1673ffffffffffffffffffffffffffffffffffffffff16815260200191505060206040518083038186803b158015612ce257600080fd5b505afa158015612cf6573d6000803e3d6000fd5b505050506040513d6020811015612d0c57600080fd5b81019080805190602001909291905050501515612d91576040517f08c379a000000000000000000000000000000000000000000000000000000000815260040180806020018281038252601e8152602001807f53656e64657220686173206e6f74206265656e2066756e64656420796574000081525060200191505060405180910390fd5b600560009054906101000a900473ffffffffffffffffffffffffffffffffffffffff1673ffffffffffffffffffffffffffffffffffffffff16630e248a11336040518263ffffffff167c0100000000000000000000000000000000000000000000000000000000028152600401808273ffffffffffffffffffffffffffffffffffffffff1673ffffffffffffffffffffffffffffffffffffffff16815260200191505060206040518083038186803b158015612e4c57600080fd5b505afa158015612e60573d6000803e3d6000fd5b505050506040513d6020811015612e7657600080fd5b81019080805190602001909291905050501515612efb576040517f08c379a00000000000000000000000000000000000000000000000000000000081526004018080602001828103825260178152602001807f4f6e6c79206169726c696e65732063616e20646f20697400000000000000000081525060200191505060405180910390fd5b8585111515612f55576040517f08c379a00000000000000000000000000000000000000000000000000000000081526004018080602001828103825260218152602001806147316021913960400191505060405180910390fd5b6000612fa6338a8a8080601f016020809104026020016040519081016040528093929190818152602001838380828437600081840152601f19601f8201169050808301925050505050505089613e4a565b905061010060405190810160405280600115158152602001600060ff1681526020014281526020018881526020018781526020013373ffffffffffffffffffffffffffffffffffffffff16815260200186868080601f016020809104026020016040519081016040528093929190818152602001838380828437600081840152601f19601f82011690508083019250505050505050815260200184848080601f016020809104026020016040519081016040528093929190818152602001838380828437600081840152601f19601f820116905080830192505050505050508152506004600083815260200190815260200160002060008201518160000160006101000a81548160ff02191690831515021790555060208201518160000160016101000a81548160ff021916908360ff16021790555060408201518160010155606082015181600201556080820151816003015560a08201518160040160006101000a81548173ffffffffffffffffffffffffffffffffffffffff021916908373ffffffffffffffffffffffffffffffffffffffff16021790555060c082015181600501908051906020019061315d929190614525565b5060e082015181600601908051906020019061317a929190614525565b50905050888860405180838380828437808301925050509250505060405180910390203373ffffffffffffffffffffffffffffffffffffffff167f9dddc35dbfa835ef29451b67b059cdf254907ddd17a693caad087018b2af3ec48b8b8b8b8b8b8b8b6040518080602001888152602001878152602001806020018060200184810384528c8c82818152602001925080828437600081840152601f19601f8201169050808301925050508481038352888882818152602001925080828437600081840152601f19601f8201169050808301925050508481038252868682818152602001925080828437600081840152601f19601f8201169050808301925050509b50505050505050505050505060405180910390a3505050505050505050565b6000600560009054906101000a900473ffffffffffffffffffffffffffffffffffffffff1673ffffffffffffffffffffffffffffffffffffffff16630e248a11336040518263ffffffff167c0100000000000000000000000000000000000000000000000000000000028152600401808273ffffffffffffffffffffffffffffffffffffffff1673ffffffffffffffffffffffffffffffffffffffff16815260200191505060206040518083038186803b15801561335757600080fd5b505afa15801561336b573d6000803e3d6000fd5b505050506040513d602081101561338157600080fd5b8101908080519060200190929190505050905090565b6000806133a2612962565b15156133f9576040517f08c379a00000000000000000000000000000000000000000000000000000000081526004018080602001828103825260258152602001806146c66025913960400191505060405180910390fd5b600560009054906101000a900473ffffffffffffffffffffffffffffffffffffffff1673ffffffffffffffffffffffffffffffffffffffff16630e248a11866040518263ffffffff167c0100000000000000000000000000000000000000000000000000000000028152600401808273ffffffffffffffffffffffffffffffffffffffff1673ffffffffffffffffffffffffffffffffffffffff16815260200191505060206040518083038186803b1580156134b457600080fd5b505afa1580156134c8573d6000803e3d6000fd5b505050506040513d60208110156134de57600080fd5b8101908080519060200190929190505050151515613564576040517f08c379a000000000000000000000000000000000000000000000000000000000815260040180806020018281038252601a8152602001807f4169726c696e6520616c7265616479207265676973746572656400000000000081525060200191505060405180910390fd5b600560009054906101000a900473ffffffffffffffffffffffffffffffffffffffff1673ffffffffffffffffffffffffffffffffffffffff16635689b249336040518263ffffffff167c0100000000000000000000000000000000000000000000000000000000028152600401808273ffffffffffffffffffffffffffffffffffffffff1673ffffffffffffffffffffffffffffffffffffffff16815260200191505060206040518083038186803b15801561361f57600080fd5b505afa158015613633573d6000803e3d6000fd5b505050506040513d602081101561364957600080fd5b810190808051906020019092919050505015156136ce576040517f08c379a000000000000000000000000000000000000000000000000000000000815260040180806020018281038252600b8152602001807f466f756e6420666972737400000000000000000000000000000000000000000081525060200191505060405180910390fd5b600560009054906101000a900473ffffffffffffffffffffffffffffffffffffffff1673ffffffffffffffffffffffffffffffffffffffff16630e248a11336040518263ffffffff167c0100000000000000000000000000000000000000000000000000000000028152600401808273ffffffffffffffffffffffffffffffffffffffff1673ffffffffffffffffffffffffffffffffffffffff16815260200191505060206040518083038186803b15801561378957600080fd5b505afa15801561379d573d6000803e3d6000fd5b505050506040513d60208110156137b357600080fd5b81019080805190602001909291905050501515613838576040517f08c379a000000000000000000000000000000000000000000000000000000000815260040180806020018281038252601c8152602001807f53656e646572206e65656420746f20626520616e204169726c696e650000000081525060200191505060405180910390fd5b60009150600090506000600560009054906101000a900473ffffffffffffffffffffffffffffffffffffffff1673ffffffffffffffffffffffffffffffffffffffff16637ab21cdc6040518163ffffffff167c010000000000000000000000000000000000000000000000000000000002815260040160206040518083038186803b1580156138c657600080fd5b505afa1580156138da573d6000803e3d6000fd5b505050506040513d60208110156138f057600080fd5b810190808051906020019092919050505090506004811015613a1e57600560009054906101000a900473ffffffffffffffffffffffffffffffffffffffff1673ffffffffffffffffffffffffffffffffffffffff1663ee38a7498787876040518463ffffffff167c0100000000000000000000000000000000000000000000000000000000028152600401808473ffffffffffffffffffffffffffffffffffffffff1673ffffffffffffffffffffffffffffffffffffffff168152602001806020018281038252848482818152602001925080828437600081840152601f19601f820116905080830192505050945050505050600060405180830381600087803b1580156139fd57600080fd5b505af1158015613a11573d6000803e3d6000fd5b5050505060019250613bc1565b6000613a476002613a3960648561411a90919063ffffffff16565b61415890919063ffffffff16565b9050613a538733614182565b600360008873ffffffffffffffffffffffffffffffffffffffff1673ffffffffffffffffffffffffffffffffffffffff16815260200190815260200160002054925080613aaa60648561411a90919063ffffffff16565b101515613bbf57600560009054906101000a900473ffffffffffffffffffffffffffffffffffffffff1673ffffffffffffffffffffffffffffffffffffffff1663ee38a7498888886040518463ffffffff167c0100000000000000000000000000000000000000000000000000000000028152600401808473ffffffffffffffffffffffffffffffffffffffff1673ffffffffffffffffffffffffffffffffffffffff168152602001806020018281038252848482818152602001925080828437600081840152601f19601f820116905080830192505050945050505050600060405180830381600087803b158015613ba257600080fd5b505af1158015613bb6573d6000803e3d6000fd5b50505050600193505b505b50935093915050565b613bd2612962565b1515613c29576040517f08c379a00000000000000000000000000000000000000000000000000000000081526004018080602001828103825260258152602001806146c66025913960400191505060405180910390fd5b6000613c3433614348565b905060008186868686604051602001808660ff1660ff167f01000000000000000000000000000000000000000000000000000000000000000281526001018573ffffffffffffffffffffffffffffffffffffffff1673ffffffffffffffffffffffffffffffffffffffff166c01000000000000000000000000028152601401848480828437808301925050508281526020019550505050505060405160208183030381529060405280519060200120905060408051908101604052803373ffffffffffffffffffffffffffffffffffffffff168152602001600115158152506007600083815260200190815260200160002060008201518160000160006101000a81548173ffffffffffffffffffffffffffffffffffffffff021916908373ffffffffffffffffffffffffffffffffffffffff16021790555060208201518160000160146101000a81548160ff0219169083151502179055509050507f3ed01f2c3fc24c6b329d931e35b03e390d23497d22b3f90e15b600343e93df118287878787604051808660ff1660ff1681526020018573ffffffffffffffffffffffffffffffffffffffff1673ffffffffffffffffffffffffffffffffffffffff168152602001806020018381526020018281038252858582818152602001925080828437600081840152601f19601f820116905080830192505050965050505050505060405180910390a1505050505050565b609681565b6000838383604051602001808473ffffffffffffffffffffffffffffffffffffffff1673ffffffffffffffffffffffffffffffffffffffff166c0100000000000000000000000002815260140183805190602001908083835b602083101515613ec85780518252602082019150602081019050602083039250613ea3565b6001836020036101000a03801982511681845116808217855250505050505090500182815260200193505050506040516020818303038152906040528051906020012090509392505050565b613f1c614468565b613f24614468565b613f2d83614348565b816000600381101515613f3c57fe5b602002019060ff16908160ff1681525050806000600381101515613f5c57fe5b6020020151816001600381101515613f7057fe5b602002019060ff16908160ff16815250505b806000600381101515613f9157fe5b602002015160ff16816001600381101515613fa857fe5b602002015160ff161415613fe457613fbf83614348565b816001600381101515613fce57fe5b602002019060ff16908160ff1681525050613f82565b806001600381101515613ff357fe5b602002015181600260038110151561400757fe5b602002019060ff16908160ff16815250505b80600060038110151561402857fe5b602002015160ff1681600260038110151561403f57fe5b602002015160ff16148061407e575080600160038110151561405d57fe5b602002015160ff1681600260038110151561407457fe5b602002015160ff16145b156140b15761408c83614348565b81600260038110151561409b57fe5b602002019060ff16908160ff1681525050614019565b80915050919050565b60006140c7858585613e4a565b9050426004600083815260200190815260200160002060010181905550816004600083815260200190815260200160002060000160016101000a81548160ff021916908360ff1602179055505050505050565b60008083141561412d5760009050614152565b6000828402905082848281151561414057fe5b0414151561414d57600080fd5b809150505b92915050565b6000808211151561416857600080fd5b6000828481151561417557fe5b0490508091505092915050565b60001515600260008473ffffffffffffffffffffffffffffffffffffffff1673ffffffffffffffffffffffffffffffffffffffff16815260200190815260200160002060008373ffffffffffffffffffffffffffffffffffffffff1673ffffffffffffffffffffffffffffffffffffffff16815260200190815260200160002060009054906101000a900460ff1615151415614344576001600260008473ffffffffffffffffffffffffffffffffffffffff1673ffffffffffffffffffffffffffffffffffffffff16815260200190815260200160002060008373ffffffffffffffffffffffffffffffffffffffff1673ffffffffffffffffffffffffffffffffffffffff16815260200190815260200160002060006101000a81548160ff0219169083151502179055506143006001600360008573ffffffffffffffffffffffffffffffffffffffff1673ffffffffffffffffffffffffffffffffffffffff1681526020019081526020016000205461444790919063ffffffff16565b600360008473ffffffffffffffffffffffffffffffffffffffff1673ffffffffffffffffffffffffffffffffffffffff168152602001908152602001600020819055505b5050565b600080600a905060008160ff166005601481819054906101000a900460ff168092919060010191906101000a81548160ff021916908360ff16021790555060ff1643034085604051602001808381526020018273ffffffffffffffffffffffffffffffffffffffff1673ffffffffffffffffffffffffffffffffffffffff166c0100000000000000000000000002815260140192505050604051602081830303815290604052805190602001206001900481151561440257fe5b06905060fa600560149054906101000a900460ff1660ff16111561443d576000600560146101000a81548160ff021916908360ff1602179055505b8092505050919050565b600080828401905083811015151561445e57600080fd5b8091505092915050565b606060405190810160405280600390602082028038833980820191505090505090565b826003601f016020900481019282156145145791602002820160005b838211156144e557835183826101000a81548160ff021916908360ff16021790555092602001926001016020816000010492830192600103026144a7565b80156145125782816101000a81549060ff02191690556001016020816000010492830192600103026144e5565b505b50905061452191906145a5565b5090565b828054600181600116156101000203166002900490600052602060002090601f016020900481019282601f1061456657805160ff1916838001178555614594565b82800160010185558215614594579182015b82811115614593578251825591602001919060010190614578565b5b5090506145a191906145d5565b5090565b6145d291905b808211156145ce57600081816101000a81549060ff0219169055506001016145ab565b5090565b90565b6145f791905b808211156145f35760008160009055506001016145db565b5090565b9056fe466c69676874206f72207363686564756c6564206465706172747572652074696d6520646f206e6f74206d61746368206f7261636c6520726571756573745468697320737461747573206e6f74206669742074686520726571756972656d656e74436c61696d206e6f7420616c6c6f776564207965742c20666c69676874206d6179207374696c6c20676574206f6e207363686564756c65436c61696d206e6f7420616c6c6f776564207965742c20666c6967687420737461747573206e6f7420757020746f2064617465436f6e74726163742069732063757272656e746c79206e6f74206f7065726174696f6e616c496e64657820646f6573206e6f74206d61746368206f7261636c65207265717565737456616c75652073656e742069732061626f7665206d6178696d756d20616c6c6f7765644172726976616c2073686f756c6420626520616674657220646570617274757265a165627a7a7230582021ae2fe7a81a1fbf1d3035b0d3f95781c9642b40688543c02f0f7ae892b13cae0029",
  "source": "pragma solidity >=0.5.0 <0.6.0;\n\nimport \"../node_modules/openzeppelin-solidity/contracts/math/SafeMath.sol\";\n\n/************************************************** */\n/* FlightSurety Smart Contract                      */\n/************************************************** */\ncontract FlightSuretyApp {\n\n    using SafeMath for uint256; \n    /********************************************************************************************/\n    /*                                       DATA VARIABLES                                     */\n    /********************************************************************************************/\n\n    // Flight status codees\n    uint8 private constant STATUS_CODE_UNKNOWN = 0;\n    uint8 private constant STATUS_CODE_ON_TIME = 10;\n    uint8 private constant STATUS_CODE_LATE_AIRLINE = 20;\n    uint8 private constant STATUS_CODE_LATE_WEATHER = 30;\n    uint8 private constant STATUS_CODE_LATE_TECHNICAL = 40;\n    uint8 private constant STATUS_CODE_LATE_OTHER = 50;\n\n    uint256 private constant AIRLINES_THRESHOLD = 4;\n    uint256 public constant MAX_INSURANCE_COST = 1 ether;\n    uint256 public constant INSURANCE_RETURN_PERCENTAGE = 150;\n    uint256 public minimumFunds = 10 ether; \n\n    address public contractOwner;          // Account used to deploy contract\n\n    struct Flight {\n        bool isRegistered;\n        uint8 statusCode;\n        uint256 updatedTimestamp;\n        uint256 depTime; \n        uint256 arrivalTime;       \n        address airline;\n        string depAirport;\n        string arrAirport;\n    }\n\n    mapping(address => mapping(address => bool)) private voters;\n    mapping(address => uint256) private votesNumber;\n    mapping(bytes32 => Flight) private flights;\n    FlightSuretyData internal flightSuretyData;\n\n\n    event FlightReg(\n        address indexed airline, \n        string indexed indexedFlight, \n        string flight, \n        uint256 depTime, \n        uint256 arrivalTime, \n        string depAirport, \n        string arrAirport\n    );\n\n    /********************************************************************************************/\n    /*                                       FUNCTION MODIFIERS                                 */\n    /********************************************************************************************/\n\n    // Modifiers help avoid duplication of code. They are typically used to validate something\n    // before a function is allowed to be executed.\n\n    /**\n    * @dev Modifier that requires the \"operational\" boolean variable to be \"true\"\n    *      This is used on all state changing functions to pause the contract in \n    *      the event there is an issue that needs to be fixed\n    */\n    modifier requireIsOperational() {\n         // Modify to call data contract's status\n        require(isOperational(), \"Contract is currently not operational\");  \n        _;  // All modifiers require an \"_\" which indicates where the function body will be added\n    }\n\n    /**\n    * @dev Modifier that requires the \"ContractOwner\" account to be the function caller\n    */\n    modifier requireContractOwner() {\n        require(msg.sender == contractOwner, \"Caller is not contract owner\");\n        _;\n    }\n\n    /********************************************************************************************/\n    /*                                       CONSTRUCTOR                                        */\n    /********************************************************************************************/\n\n    /**\n    * @dev Contract constructor\n    *\n    */\n    constructor(address payable dataContract) public {\n        contractOwner = msg.sender;\n        flightSuretyData = FlightSuretyData(dataContract);\n    }\n\n    /********************************************************************************************/\n    /*                                       UTILITY FUNCTIONS                                  */\n    /********************************************************************************************/\n\n    function isOperational() public view returns(bool) {\n        return flightSuretyData.isOperational();  \n    }\n\n    function isAirline() public view returns(bool) {\n        return flightSuretyData.isAirline(msg.sender);  \n    }\n\n    /********************************************************************************************/\n    /*                                     SMART CONTRACT FUNCTIONS                             */\n    /********************************************************************************************/\n\n  \n    /**\n    * @dev Update the minimum funds required for an airline to operate the contract\n    *      Can only be called by the contract owner\n    */    \n    function updateMinimumFunds(uint256 _Amount) external requireContractOwner requireIsOperational {\n        minimumFunds = _Amount;\n    }\n\n    function vote(address _airline, address _caller) internal {\n        if (voters[_airline][_caller] == false)  {   // Count vote only once per airline\n            voters[_airline][_caller] = true;\n            votesNumber[_airline] = votesNumber[_airline].add(1);\n        }\n    }\n\n   /**\n    * @dev Add an airline to the registration queue\n    *\n    */   \n    function registerAirline(address account, string calldata name) external requireIsOperational returns(bool success, uint256 votes) {\n        \n        require(!flightSuretyData.isAirline(account), \"Airline already registered\");\n        require(flightSuretyData.isFunded(msg.sender), \"Found first\");\n        require(flightSuretyData.isAirline(msg.sender), \"Sender need to be an Airline\");\n        success = false;\n        votes = 0;\n        uint256 numAirlines = flightSuretyData.getNumAirlines();\n        if (numAirlines < AIRLINES_THRESHOLD) {\n            flightSuretyData.registerAirline(account, name);\n            success = true;\n        } else {\n            uint256 numVotesNeededx100 = numAirlines.mul(100).div(2);  \n            vote(account, msg.sender);\n            votes = votesNumber[account];\n            if (votes.mul(100) >= numVotesNeededx100) { \n                flightSuretyData.registerAirline(account, name);\n                success = true;\n            }\n        }\n    }\n\n   /**\n    * @dev Update the name of the airline (optional)\n    *\n    */   \n    function updateAirlineName(string calldata newName) external requireIsOperational {\n        require(flightSuretyData.isAirline(msg.sender), \"Sender need to be an Airline\");\n        require(bytes(newName).length == 0, \"Name is required\");\n        flightSuretyData.updateAirlineName(msg.sender, newName);\n    }\n\n   /**\n    * @dev Send funds to the contract, to be called by the airlines\n    *\n    */   \n    function fund() external payable requireIsOperational {\n        require(flightSuretyData.isAirline(msg.sender), \"Sender need to be an Airline\");\n        require(msg.value >= minimumFunds, \"Not enough funds\");\n        flightSuretyData.fund.value(msg.value)(msg.sender);\n    }\n \n\n   /**\n    * @dev Register a future flight for insuring.\n    *\n    */  \n    function registerFlight(string calldata flight, \n                    uint256 depTime, \n                    uint256 arrivalTime,\n                    string calldata depAirport, \n                    string calldata arrAirport) external requireIsOperational {\n        require(depTime > block.timestamp, \"Flight need to be in the future\");\n        require(flightSuretyData.isFunded(msg.sender), \"Sender has not been funded yet\");\n        require(flightSuretyData.isAirline(msg.sender), \"Only airlines can do it\");\n        require(arrivalTime > depTime, \"Arrival should be after departure\");\n        bytes32 key = getFlightKey(msg.sender, flight, depTime);\n        flights[key] = Flight(\n            true, \n            STATUS_CODE_UNKNOWN, \n            block.timestamp, \n            depTime, \n            arrivalTime, \n            msg.sender, \n            depAirport, \n            arrAirport\n        );\n        emit FlightReg(msg.sender, flight, flight, depTime, arrivalTime, depAirport, arrAirport);\n    }\n    \n   /**\n    * @dev Called after oracle has updated flight status\n    *\n    */  \n    function processFlightStatus(address airline, string memory flight, uint256 depTime, uint8 statusCode) internal {\n        bytes32 key = getFlightKey(airline, flight, depTime);\n        flights[key].updatedTimestamp = block.timestamp;\n        flights[key].statusCode = statusCode;\n    }\n\n   /**\n    * @dev Get the current status code and its update timestamp\n    *\n    */  \n    function getFlightStatusInfo(address airline, string calldata flight, uint256 depTime) external view returns(uint256 statusCode, uint256 updateTimestamp) {\n        bytes32 key = getFlightKey(airline, flight, depTime);\n        return (flights[key].statusCode, flights[key].updatedTimestamp);\n    }\n\n   /**\n    * @dev Generate a request for oracles to fetch flight information\n    *\n    */  \n    function fetchFlightStatus(address airline, string calldata flight, uint256 depTime) external requireIsOperational {\n        uint8 index = getRandomIndex(msg.sender);\n        // Generate a unique key for storing the request\n        bytes32 key = keccak256(abi.encodePacked(index, airline, flight, depTime));\n        oracleResponses[key] = ResponseInfo({requester: msg.sender, isOpen: true});\n        emit OracleRequest(index, airline, flight, depTime);\n    } \n\n   /**\n    * @dev Buy insurance for a flight\n    *\n    */  \n    function buyInsurance(address airline, string calldata flight, uint256 depTime) external payable requireIsOperational {\n        require(msg.value <= MAX_INSURANCE_COST, \"Value sent is above maximum allowed\");\n         require(!flightSuretyData.isAirline(msg.sender), \"It not permited to Airlines buy\");\n        require(block.timestamp < depTime, \"Buy before schedule departure\");\n        bytes32 key = getFlightKey(airline, flight, depTime);\n        require(flights[key].isRegistered == true, \"Flight not registered\");\n        flightSuretyData.buy.value(msg.value)(msg.sender, airline, flight, depTime);\n    }\n\n   /**\n    * @dev Claim compensation for a delayed flight. If it is legitimate claim, proper credit is added \n    *      to all insurees that bought insurance for that flight\n    *\n    */  \n    function claimCompensation(address airline, string calldata flight, uint256 depTime) external requireIsOperational {\n        bytes32 key = getFlightKey(airline, flight, depTime);\n        require(flights[key].statusCode == STATUS_CODE_LATE_AIRLINE, \"This status not fit the requirement\");\n        require(flights[key].updatedTimestamp > flights[key].arrivalTime, \"Claim not allowed yet, flight status not up to date\");\n        require(block.timestamp > flights[key].arrivalTime, \"Claim not allowed yet, flight may still get on schedule\");\n        flightSuretyData.creditInsurees(INSURANCE_RETURN_PERCENTAGE, airline, flight, depTime);\n    }\n\n   /**\n    * @dev Allow the insuree to withdraw the credits\n    *\n    */  \n    function withdrawCompensation() external requireIsOperational {\n        require(flightSuretyData.getAmountToBeReceived(msg.sender) > 0, \"No compensation to be received\");\n        flightSuretyData.pay(msg.sender);\n    }\n\n   /**\n    * @dev Get the amount paid by the insuree as insurance for a flight\n    *\n    */  \n    function getAmountPaidByInsuree(address airline, string calldata flight, uint256 depTime) external view returns(uint256) {\n        bytes32 key = getFlightKey(airline, flight, depTime);\n        require(flights[key].isRegistered == true, \"Flight not registered\");\n        return flightSuretyData.getAmountPaidByInsuree(msg.sender, airline, flight, depTime);\n    }\n\n   /**\n    * @dev Show the credits available for the insuree (caller)\n    *\n    */  \n    function getAmountToBeReceived() external view returns(uint256) {\n        return flightSuretyData.getAmountToBeReceived(msg.sender);\n    }\n\n// region ORACLE MANAGEMENT\n\n    // Incremented to add pseudo-randomness at various points\n    uint8 private nonce = 0;    \n\n    // Fee to be paid when registering oracle\n    uint256 public constant REGISTRATION_FEE = 1 ether;\n\n    // Number of oracles that must respond for valid status\n    uint256 private constant MIN_RESPONSES = 3;\n\n\n    struct Oracle {\n        bool isRegistered;\n        uint8[3] indexes;        \n    }\n\n    // Track all registered oracles\n    mapping(address => Oracle) private oracles;\n\n    // Model for responses from oracles\n    struct ResponseInfo {\n        address requester;                              // Account that requested status\n        bool isOpen;                                    // If open, oracle responses are accepted\n        mapping(uint8 => address[]) responses;          // Mapping key is the status code reported\n                                                        // This lets us group responses and identify\n                                                        // the response that majority of the oracles\n    }\n\n    // Track all oracle responses\n    // Key = hash(index, flight, depTime)\n    mapping(bytes32 => ResponseInfo) private oracleResponses;\n\n    // Event fired each time an oracle submits a response\n    event FlightStatusInfo(address airline, string flight, uint256 depTime, uint8 status);\n\n    event OracleReport(address airline, string flight, uint256 depTime, uint8 status);\n\n    // Event fired when flight status request is submitted\n    // Oracles track this and if they have a matching index\n    // they fetch data and submit a response\n    event OracleRequest(uint8 index, address airline, string flight, uint256 depTime);\n    event OracleRegistered(address account, uint8[3] indexes);\n\n\n    // Register an oracle with the contract\n    function registerOracle() external payable {\n        require(!oracles[msg.sender].isRegistered, \"Oracle already registered\");\n        // Require registration fee\n        require(msg.value >= REGISTRATION_FEE, \"Registration fee is required\");\n\n        uint8[3] memory indexes = generateIndexes(msg.sender);\n\n        oracles[msg.sender] = Oracle({ isRegistered: true, indexes: indexes });\n        emit OracleRegistered(msg.sender, indexes);\n    }\n\n    function getMyIndexes() view external returns(uint8[3] memory) {\n        require(oracles[msg.sender].isRegistered, \"Not registered as an oracle\");\n        return oracles[msg.sender].indexes;\n    }\n\n    // Called by oracle when a response is available to an outstanding request\n    // For the response to be accepted, there must be a pending request that is open\n    // and matches one of the three Indexes randomly assigned to the oracle at the\n    // time of registration (i.e. uninvited oracles are not welcome)\n    function submitOracleResponse(uint8 index, address airline, string calldata flight, uint256 depTime, uint8 statusCode) external {\n        require((oracles[msg.sender].indexes[0] == index) \n                || (oracles[msg.sender].indexes[1] == index) \n                || (oracles[msg.sender].indexes[2] == index), \"Index does not match oracle request\");\n\n\n        bytes32 key = keccak256(abi.encodePacked(index, airline, flight, depTime)); \n        require(oracleResponses[key].isOpen, \"Flight or scheduled departure time do not match oracle request\");\n\n        oracleResponses[key].responses[statusCode].push(msg.sender);\n\n        // Information isn't considered verified until at least MIN_RESPONSES\n        // oracles respond with the *** same *** information\n        emit OracleReport(airline, flight, depTime, statusCode);\n        if (oracleResponses[key].responses[statusCode].length >= MIN_RESPONSES) {\n\n            emit FlightStatusInfo(airline, flight, depTime, statusCode);\n\n            // Handle flight status as appropriate\n            processFlightStatus(airline, flight, depTime, statusCode);\n        }\n    }\n\n\n    function getFlightKey(address airline, string memory flight, uint256 depTime) pure internal returns(bytes32) {\n        return keccak256(abi.encodePacked(airline, flight, depTime));\n    }\n\n    // Returns array of three non-duplicating integers from 0-9\n    function generateIndexes(address account) internal returns(uint8[3] memory) {\n        uint8[3] memory indexes;\n        indexes[0] = getRandomIndex(account);\n        \n        indexes[1] = indexes[0];\n        while(indexes[1] == indexes[0]) {\n            indexes[1] = getRandomIndex(account);\n        }\n\n        indexes[2] = indexes[1];\n        while((indexes[2] == indexes[0]) || (indexes[2] == indexes[1])) {\n            indexes[2] = getRandomIndex(account);\n        }\n\n        return indexes;\n    }\n\n    // Returns array of three non-duplicating integers from 0-9\n    function getRandomIndex(address account) internal returns (uint8) {\n        uint8 maxValue = 10;\n\n        // Pseudo random number...the incrementing nonce adds variation\n        uint8 random = uint8(uint256(keccak256(abi.encodePacked(blockhash(block.number - nonce++), account))) % maxValue);\n\n        if (nonce > 250) {\n            nonce = 0;  // Can only fetch blockhashes for last 256 blocks so we adapt\n        }\n\n        return random;\n    }\n\n// endregion\n}   \n\n// Interface to the data contract FlightSuretyData.sol\ninterface FlightSuretyData {\n    function isOperational() external view returns(bool);\n    function registerAirline(address airline, string calldata name) external;\n    function getNumAirlines() external view returns(uint256);\n    function isAirline(address account) external view returns(bool);\n    function updateAirlineName(address airline, string calldata newName) external;\n    function fund(address airline) external payable;\n    function isFunded(address airline) external view returns(bool);\n    function getCurrentFunds(address airline) external view returns(uint256);\n    function buy(address payable byer, address airline, string calldata flight, uint256 depTime) external payable;\n    function getAmountPaidByInsuree(address payable insuree, address airline, string calldata flight, uint256 depTime) external view returns(uint256 amount);    \n    function creditInsurees(uint256 percentage, address airline, string calldata flight, uint256 depTime) external;\n    function getAmountToBeReceived(address payable insuree) external view returns(uint256 amount);\n    function pay(address payable insuree) external;\n}",
  "sourcePath": "/Users/cx812ng/Downloads/flightsurety-master 7/contracts/FlightSuretyApp.sol",
  "compiler": {
    "name": "solc",
    "version": "0.5.2+commit.1df8f40c.Emscripten.clang"
  },
  "schemaVersion": "3.0.10",
  "updatedAt": "2020-04-15T21:59:51.989Z",
  "devdoc": {
    "methods": {
      "buyInsurance(address,string,uint256)": {
        "details": "Buy insurance for a flight    "
      },
      "claimCompensation(address,string,uint256)": {
        "details": "Claim compensation for a delayed flight. If it is legitimate claim, proper credit is added      to all insurees that bought insurance for that flight    "
      },
      "constructor": {
        "details": "Contract constructor    "
      },
      "fetchFlightStatus(address,string,uint256)": {
        "details": "Generate a request for oracles to fetch flight information    "
      },
      "fund()": {
        "details": "Send funds to the contract, to be called by the airlines    "
      },
      "getAmountPaidByInsuree(address,string,uint256)": {
        "details": "Get the amount paid by the insuree as insurance for a flight    "
      },
      "getAmountToBeReceived()": {
        "details": "Show the credits available for the insuree (caller)    "
      },
      "getFlightStatusInfo(address,string,uint256)": {
        "details": "Get the current status code and its update timestamp    "
      },
      "registerAirline(address,string)": {
        "details": "Add an airline to the registration queue    "
      },
      "registerFlight(string,uint256,uint256,string,string)": {
        "details": "Register a future flight for insuring.    "
      },
      "updateAirlineName(string)": {
        "details": "Update the name of the airline (optional)    "
      },
      "updateMinimumFunds(uint256)": {
        "details": "Update the minimum funds required for an airline to operate the contract     Can only be called by the contract owner"
      },
      "withdrawCompensation()": {
        "details": "Allow the insuree to withdraw the credits    "
      }
    }
  },
  "userdoc": {
    "methods": {
      "isOperational()": {
        "notice": "*****************************************************************************************"
      }
    },
    "notice": "************************************************ "
  }
}