{
  "contractName": "FlightSuretyData",
  "abi": [
    {
      "inputs": [
        {
          "name": "firstAirline",
          "type": "address"
        },
        {
          "name": "name",
          "type": "string"
        }
      ],
      "payable": false,
      "stateMutability": "nonpayable",
      "type": "constructor"
    },
    {
      "payable": true,
      "stateMutability": "payable",
      "type": "fallback"
    },
    {
      "anonymous": false,
      "inputs": [
        {
          "indexed": true,
          "name": "account",
          "type": "address"
        },
        {
          "indexed": false,
          "name": "name",
          "type": "string"
        }
      ],
      "name": "AirlineRegistered",
      "type": "event"
    },
    {
      "anonymous": false,
      "inputs": [
        {
          "indexed": true,
          "name": "account",
          "type": "address"
        },
        {
          "indexed": false,
          "name": "amount",
          "type": "uint256"
        }
      ],
      "name": "AirlineFunded",
      "type": "event"
    },
    {
      "anonymous": false,
      "inputs": [
        {
          "indexed": true,
          "name": "passenger",
          "type": "address"
        },
        {
          "indexed": false,
          "name": "price",
          "type": "uint256"
        },
        {
          "indexed": false,
          "name": "airline",
          "type": "address"
        },
        {
          "indexed": false,
          "name": "flight",
          "type": "string"
        },
        {
          "indexed": false,
          "name": "scheduledDepartureTime",
          "type": "uint256"
        }
      ],
      "name": "InsuranceBought",
      "type": "event"
    },
    {
      "anonymous": false,
      "inputs": [
        {
          "indexed": true,
          "name": "airline",
          "type": "address"
        },
        {
          "indexed": true,
          "name": "flight",
          "type": "string"
        },
        {
          "indexed": true,
          "name": "scheduledDepartureTime",
          "type": "uint256"
        }
      ],
      "name": "InsuranceCreditAvailable",
      "type": "event"
    },
    {
      "anonymous": false,
      "inputs": [
        {
          "indexed": true,
          "name": "insuree",
          "type": "address"
        },
        {
          "indexed": false,
          "name": "amount",
          "type": "uint256"
        }
      ],
      "name": "InsuranceCredited",
      "type": "event"
    },
    {
      "anonymous": false,
      "inputs": [
        {
          "indexed": true,
          "name": "insuree",
          "type": "address"
        },
        {
          "indexed": false,
          "name": "amount",
          "type": "uint256"
        }
      ],
      "name": "InsurancePaid",
      "type": "event"
    },
    {
      "constant": true,
      "inputs": [],
      "name": "isOperational",
      "outputs": [
        {
          "name": "",
          "type": "bool"
        }
      ],
      "payable": false,
      "stateMutability": "view",
      "type": "function"
    },
    {
      "constant": false,
      "inputs": [
        {
          "name": "mode",
          "type": "bool"
        }
      ],
      "name": "setOperatingStatus",
      "outputs": [],
      "payable": false,
      "stateMutability": "nonpayable",
      "type": "function"
    },
    {
      "constant": false,
      "inputs": [
        {
          "name": "contractAddress",
          "type": "address"
        }
      ],
      "name": "authorizeCaller",
      "outputs": [],
      "payable": false,
      "stateMutability": "nonpayable",
      "type": "function"
    },
    {
      "constant": false,
      "inputs": [
        {
          "name": "contractAddress",
          "type": "address"
        }
      ],
      "name": "deauthorizeContract",
      "outputs": [],
      "payable": false,
      "stateMutability": "nonpayable",
      "type": "function"
    },
    {
      "constant": false,
      "inputs": [
        {
          "name": "account",
          "type": "address"
        },
        {
          "name": "name",
          "type": "string"
        }
      ],
      "name": "registerAirline",
      "outputs": [],
      "payable": false,
      "stateMutability": "nonpayable",
      "type": "function"
    },
    {
      "constant": true,
      "inputs": [
        {
          "name": "account",
          "type": "address"
        }
      ],
      "name": "isAirline",
      "outputs": [
        {
          "name": "",
          "type": "bool"
        }
      ],
      "payable": false,
      "stateMutability": "view",
      "type": "function"
    },
    {
      "constant": true,
      "inputs": [],
      "name": "getNumAirlines",
      "outputs": [
        {
          "name": "",
          "type": "uint256"
        }
      ],
      "payable": false,
      "stateMutability": "view",
      "type": "function"
    },
    {
      "constant": false,
      "inputs": [
        {
          "name": "airline",
          "type": "address"
        },
        {
          "name": "newName",
          "type": "string"
        }
      ],
      "name": "updateAirlineName",
      "outputs": [],
      "payable": false,
      "stateMutability": "nonpayable",
      "type": "function"
    },
    {
      "constant": false,
      "inputs": [
        {
          "name": "airline",
          "type": "address"
        }
      ],
      "name": "fund",
      "outputs": [],
      "payable": true,
      "stateMutability": "payable",
      "type": "function"
    },
    {
      "constant": true,
      "inputs": [
        {
          "name": "airline",
          "type": "address"
        }
      ],
      "name": "funded",
      "outputs": [
        {
          "name": "",
          "type": "bool"
        }
      ],
      "payable": false,
      "stateMutability": "view",
      "type": "function"
    },
    {
      "constant": true,
      "inputs": [
        {
          "name": "airline",
          "type": "address"
        }
      ],
      "name": "getCurrentFunds",
      "outputs": [
        {
          "name": "",
          "type": "uint256"
        }
      ],
      "payable": false,
      "stateMutability": "view",
      "type": "function"
    },
    {
      "constant": false,
      "inputs": [
        {
          "name": "byer",
          "type": "address"
        },
        {
          "name": "airline",
          "type": "address"
        },
        {
          "name": "flight",
          "type": "string"
        },
        {
          "name": "scheduledDepartureTime",
          "type": "uint256"
        }
      ],
      "name": "buy",
      "outputs": [],
      "payable": true,
      "stateMutability": "payable",
      "type": "function"
    },
    {
      "constant": false,
      "inputs": [
        {
          "name": "percentage",
          "type": "uint256"
        },
        {
          "name": "airline",
          "type": "address"
        },
        {
          "name": "flight",
          "type": "string"
        },
        {
          "name": "scheduledDepartureTime",
          "type": "uint256"
        }
      ],
      "name": "creditInsurees",
      "outputs": [],
      "payable": false,
      "stateMutability": "nonpayable",
      "type": "function"
    },
    {
      "constant": false,
      "inputs": [
        {
          "name": "insuree",
          "type": "address"
        }
      ],
      "name": "pay",
      "outputs": [],
      "payable": false,
      "stateMutability": "nonpayable",
      "type": "function"
    },
    {
      "constant": true,
      "inputs": [
        {
          "name": "insuree",
          "type": "address"
        },
        {
          "name": "airline",
          "type": "address"
        },
        {
          "name": "flight",
          "type": "string"
        },
        {
          "name": "scheduledDepartureTime",
          "type": "uint256"
        }
      ],
      "name": "getAmountPaidByInsuree",
      "outputs": [
        {
          "name": "amount",
          "type": "uint256"
        }
      ],
      "payable": false,
      "stateMutability": "view",
      "type": "function"
    },
    {
      "constant": true,
      "inputs": [
        {
          "name": "insuree",
          "type": "address"
        }
      ],
      "name": "getAmountToBeReceived",
      "outputs": [
        {
          "name": "amount",
          "type": "uint256"
        }
      ],
      "payable": false,
      "stateMutability": "view",
      "type": "function"
    }
  ],
  "bytecode": "0x60806040526001600060146101000a81548160ff02191690831515021790555060006003553480156200003157600080fd5b5060405162002d7838038062002d78833981018060405260408110156200005757600080fd5b810190808051906020019092919080516401000000008111156200007a57600080fd5b828101905060208101848111156200009157600080fd5b8151856001820283011164010000000082111715620000af57600080fd5b5050929190505050336000806101000a81548173ffffffffffffffffffffffffffffffffffffffff021916908373ffffffffffffffffffffffffffffffffffffffff1602179055506200011282826200011a640100000000026401000000009004565b505062000408565b62000140600160035462000337640100000000026200244a179091906401000000009004565b60038190555060a0604051908101604052808281526020018373ffffffffffffffffffffffffffffffffffffffff1681526020016001151581526020016000151581526020016000815250600260008473ffffffffffffffffffffffffffffffffffffffff1673ffffffffffffffffffffffffffffffffffffffff1681526020019081526020016000206000820151816000019080519060200190620001e892919062000359565b5060208201518160010160006101000a81548173ffffffffffffffffffffffffffffffffffffffff021916908373ffffffffffffffffffffffffffffffffffffffff16021790555060408201518160010160146101000a81548160ff02191690831515021790555060608201518160010160156101000a81548160ff021916908315150217905550608082015181600201559050508173ffffffffffffffffffffffffffffffffffffffff167f472401a2a0d12f4350699788282af698829c7506b130af7979dbf561cecc0605826040518080602001828103825283818151815260200191508051906020019080838360005b83811015620002f8578082015181840152602081019050620002db565b50505050905090810190601f168015620003265780820380516001836020036101000a031916815260200191505b509250505060405180910390a25050565b60008082840190508381101515156200034f57600080fd5b8091505092915050565b828054600181600116156101000203166002900490600052602060002090601f016020900481019282601f106200039c57805160ff1916838001178555620003cd565b82800160010185558215620003cd579182015b82811115620003cc578251825591602001919060010190620003af565b5b509050620003dc9190620003e0565b5090565b6200040591905b8082111562000401576000816000905550600101620003e7565b5090565b90565b61296080620004186000396000f3fe60806040526004361061010f576000357c01000000000000000000000000000000000000000000000000000000009004806335183170116100a7578063b464b6e111610076578063b464b6e11461072d578063ba11d929146107d3578063cd905dff14610838578063ee38a749146108675761010f565b8063351831701461058557806345f9fc78146106485780636e861c0e146106b15780637ab21cdc146107025761010f565b80631f428b4b116100e35780631f428b4b1461035257806323024408146104365780632adf4c5b1461047a5780632c388d5d146105345761010f565b80620fc78d146101f65780630c11dedd1461025b5780630e248a11146102ac578063110466ed14610315575b60008036905014151561018a576040517f08c379a00000000000000000000000000000000000000000000000000000000081526004018080602001828103825260108152602001807f2073686f756c6420626520656d7074790000000000000000000000000000000081525060200191505060405180910390fd5b6101933361090d565b15156101ea576040517f08c379a00000000000000000000000000000000000000000000000000000000081526004018080602001828103825260238152602001806128ed6023913960400191505060405180910390fd5b6101f4333461096d565b005b34801561020257600080fd5b506102456004803603602081101561021957600080fd5b81019080803573ffffffffffffffffffffffffffffffffffffffff169060200190929190505050610a0c565b6040518082815260200191505060405180910390f35b34801561026757600080fd5b506102aa6004803603602081101561027e57600080fd5b81019080803573ffffffffffffffffffffffffffffffffffffffff169060200190929190505050610b77565b005b3480156102b857600080fd5b506102fb600480360360208110156102cf57600080fd5b81019080803573ffffffffffffffffffffffffffffffffffffffff16906020019092919050505061090d565b604051808215151515815260200191505060405180910390f35b34801561032157600080fd5b506103506004803603602081101561033857600080fd5b81019080803515159060200190929190505050610db6565b005b34801561035e57600080fd5b506104206004803603608081101561037557600080fd5b81019080803573ffffffffffffffffffffffffffffffffffffffff169060200190929190803573ffffffffffffffffffffffffffffffffffffffff169060200190929190803590602001906401000000008111156103d257600080fd5b8201836020820111156103e457600080fd5b8035906020019184600183028401116401000000008311171561040657600080fd5b909192939192939080359060200190929190505050610e97565b6040518082815260200191505060405180910390f35b6104786004803603602081101561044c57600080fd5b81019080803573ffffffffffffffffffffffffffffffffffffffff169060200190929190505050611109565b005b34801561048657600080fd5b506105326004803603608081101561049d57600080fd5b8101908080359060200190929190803573ffffffffffffffffffffffffffffffffffffffff169060200190929190803590602001906401000000008111156104e457600080fd5b8201836020820111156104f657600080fd5b8035906020019184600183028401116401000000008311171561051857600080fd5b9091929391929390803590602001909291905050506112de565b005b34801561054057600080fd5b506105836004803603602081101561055757600080fd5b81019080803573ffffffffffffffffffffffffffffffffffffffff1690602001909291905050506117c3565b005b6106466004803603608081101561059b57600080fd5b81019080803573ffffffffffffffffffffffffffffffffffffffff169060200190929190803573ffffffffffffffffffffffffffffffffffffffff169060200190929190803590602001906401000000008111156105f857600080fd5b82018360208201111561060a57600080fd5b8035906020019184600183028401116401000000008311171561062c57600080fd5b9091929391929390803590602001909291905050506118e1565b005b34801561065457600080fd5b506106976004803603602081101561066b57600080fd5b81019080803573ffffffffffffffffffffffffffffffffffffffff169060200190929190505050611d4c565b604051808215151515815260200191505060405180910390f35b3480156106bd57600080fd5b50610700600480360360208110156106d457600080fd5b81019080803573ffffffffffffffffffffffffffffffffffffffff169060200190929190505050611ec4565b005b34801561070e57600080fd5b50610717611fda565b6040518082815260200191505060405180910390f35b34801561073957600080fd5b506107d16004803603604081101561075057600080fd5b81019080803573ffffffffffffffffffffffffffffffffffffffff1690602001909291908035906020019064010000000081111561078d57600080fd5b82018360208201111561079f57600080fd5b803590602001918460018302840111640100000000831117156107c157600080fd5b9091929391929390505050611fe4565b005b3480156107df57600080fd5b50610822600480360360208110156107f657600080fd5b81019080803573ffffffffffffffffffffffffffffffffffffffff16906020019092919050505061215a565b6040518082815260200191505060405180910390f35b34801561084457600080fd5b5061084d6122c2565b604051808215151515815260200191505060405180910390f35b34801561087357600080fd5b5061090b6004803603604081101561088a57600080fd5b81019080803573ffffffffffffffffffffffffffffffffffffffff169060200190929190803590602001906401000000008111156108c757600080fd5b8201836020820111156108d957600080fd5b803590602001918460018302840111640100000000831117156108fb57600080fd5b90919293919293905050506122d8565b005b600060011515600260008473ffffffffffffffffffffffffffffffffffffffff1673ffffffffffffffffffffffffffffffffffffffff16815260200190815260200160002060010160149054906101000a900460ff161515149050919050565b6109c281600260008573ffffffffffffffffffffffffffffffffffffffff1673ffffffffffffffffffffffffffffffffffffffff1681526020019081526020016000206002015461244a90919063ffffffff16565b600260008473ffffffffffffffffffffffffffffffffffffffff1673ffffffffffffffffffffffffffffffffffffffff168152602001908152602001600020600201819055505050565b600060011515600160003373ffffffffffffffffffffffffffffffffffffffff1673ffffffffffffffffffffffffffffffffffffffff16815260200190815260200160002060009054906101000a900460ff1615151480610ab957506000809054906101000a900473ffffffffffffffffffffffffffffffffffffffff1673ffffffffffffffffffffffffffffffffffffffff163373ffffffffffffffffffffffffffffffffffffffff16145b1515610b2d576040517f08c379a00000000000000000000000000000000000000000000000000000000081526004018080602001828103825260188152602001807f43616c6c6572206973206e6f7420617574686f72697a6564000000000000000081525060200191505060405180910390fd5b600260008373ffffffffffffffffffffffffffffffffffffffff1673ffffffffffffffffffffffffffffffffffffffff168152602001908152602001600020600201549050919050565b60011515600160003373ffffffffffffffffffffffffffffffffffffffff1673ffffffffffffffffffffffffffffffffffffffff16815260200190815260200160002060009054906101000a900460ff1615151480610c2257506000809054906101000a900473ffffffffffffffffffffffffffffffffffffffff1673ffffffffffffffffffffffffffffffffffffffff163373ffffffffffffffffffffffffffffffffffffffff16145b1515610c96576040517f08c379a00000000000000000000000000000000000000000000000000000000081526004018080602001828103825260188152602001807f43616c6c6572206973206e6f7420617574686f72697a6564000000000000000081525060200191505060405180910390fd5b6000600660008373ffffffffffffffffffffffffffffffffffffffff1673ffffffffffffffffffffffffffffffffffffffff168152602001908152602001600020549050600660008373ffffffffffffffffffffffffffffffffffffffff1673ffffffffffffffffffffffffffffffffffffffff168152602001908152602001600020600090558173ffffffffffffffffffffffffffffffffffffffff166108fc829081150290604051600060405180830381858888f19350505050158015610d63573d6000803e3d6000fd5b508173ffffffffffffffffffffffffffffffffffffffff167fa976db6a1ab2b2119ca95cf2715193b8b35e6834d94eb5a3647ca8d6d2314b4b826040518082815260200191505060405180910390a25050565b6000809054906101000a900473ffffffffffffffffffffffffffffffffffffffff1673ffffffffffffffffffffffffffffffffffffffff163373ffffffffffffffffffffffffffffffffffffffff16141515610e7a576040517f08c379a000000000000000000000000000000000000000000000000000000000815260040180806020018281038252601c8152602001807f43616c6c6572206973206e6f7420636f6e7472616374206f776e65720000000081525060200191505060405180910390fd5b80600060146101000a81548160ff02191690831515021790555050565b600060011515600160003373ffffffffffffffffffffffffffffffffffffffff1673ffffffffffffffffffffffffffffffffffffffff16815260200190815260200160002060009054906101000a900460ff1615151480610f4457506000809054906101000a900473ffffffffffffffffffffffffffffffffffffffff1673ffffffffffffffffffffffffffffffffffffffff163373ffffffffffffffffffffffffffffffffffffffff16145b1515610fb8576040517f08c379a00000000000000000000000000000000000000000000000000000000081526004018080602001828103825260188152602001807f43616c6c6572206973206e6f7420617574686f72697a6564000000000000000081525060200191505060405180910390fd5b60009050600061100d8686868080601f016020809104026020016040519081016040528093929190818152602001838380828437600081840152601f19601f820116905080830192505050505050508561246b565b905060008090505b60046000838152602001908152602001600020805490508110156110fe578773ffffffffffffffffffffffffffffffffffffffff16600460008481526020019081526020016000208281548110151561106a57fe5b906000526020600020906005020160000160009054906101000a900473ffffffffffffffffffffffffffffffffffffffff1673ffffffffffffffffffffffffffffffffffffffff1614156110f15760046000838152602001908152602001600020818154811015156110d857fe5b90600052602060002090600502016001015492506110fe565b8080600101915050611015565b505095945050505050565b60011515600160003373ffffffffffffffffffffffffffffffffffffffff1673ffffffffffffffffffffffffffffffffffffffff16815260200190815260200160002060009054906101000a900460ff16151514806111b457506000809054906101000a900473ffffffffffffffffffffffffffffffffffffffff1673ffffffffffffffffffffffffffffffffffffffff163373ffffffffffffffffffffffffffffffffffffffff16145b1515611228576040517f08c379a00000000000000000000000000000000000000000000000000000000081526004018080602001828103825260188152602001807f43616c6c6572206973206e6f7420617574686f72697a6564000000000000000081525060200191505060405180910390fd5b611232813461096d565b6001600260008373ffffffffffffffffffffffffffffffffffffffff1673ffffffffffffffffffffffffffffffffffffffff16815260200190815260200160002060010160156101000a81548160ff0219169083151502179055508073ffffffffffffffffffffffffffffffffffffffff167fe3e3c2f23f7445131259937f93b9ed0c075fe06c9d702be2d7ac549d0ec5fc32346040518082815260200191505060405180910390a250565b60011515600160003373ffffffffffffffffffffffffffffffffffffffff1673ffffffffffffffffffffffffffffffffffffffff16815260200190815260200160002060009054906101000a900460ff161515148061138957506000809054906101000a900473ffffffffffffffffffffffffffffffffffffffff1673ffffffffffffffffffffffffffffffffffffffff163373ffffffffffffffffffffffffffffffffffffffff16145b15156113fd576040517f08c379a00000000000000000000000000000000000000000000000000000000081526004018080602001828103825260188152602001807f43616c6c6572206973206e6f7420617574686f72697a6564000000000000000081525060200191505060405180910390fd5b600061144e8585858080601f016020809104026020016040519081016040528093929190818152602001838380828437600081840152601f19601f820116905080830192505050505050508461246b565b90506005600082815260200190815260200160002060009054906101000a900460ff161515156114c9576040517f08c379a00000000000000000000000000000000000000000000000000000000081526004018080602001828103825260258152602001806129106025913960400191505060405180910390fd5b60008090505b600460008381526020019081526020016000208054905081101561172b576000600460008481526020019081526020016000208281548110151561150f57fe5b906000526020600020906005020160000160009054906101000a900473ffffffffffffffffffffffffffffffffffffffff169050600061159c606461158e8b600460008981526020019081526020016000208781548110151561156e57fe5b90600052602060002090600502016001015461253590919063ffffffff16565b61257390919063ffffffff16565b90506115f081600660008573ffffffffffffffffffffffffffffffffffffffff1673ffffffffffffffffffffffffffffffffffffffff1681526020019081526020016000205461244a90919063ffffffff16565b600660008473ffffffffffffffffffffffffffffffffffffffff1673ffffffffffffffffffffffffffffffffffffffff1681526020019081526020016000208190555061168881600260008b73ffffffffffffffffffffffffffffffffffffffff1673ffffffffffffffffffffffffffffffffffffffff1681526020019081526020016000206002015461259d90919063ffffffff16565b600260008a73ffffffffffffffffffffffffffffffffffffffff1673ffffffffffffffffffffffffffffffffffffffff168152602001908152602001600020600201819055508173ffffffffffffffffffffffffffffffffffffffff167f387e531539117ffbbc64346498e91d0916d1cf52ac62a797e1102d5a400cb632826040518082815260200191505060405180910390a2505080806001019150506114cf565b5060016005600083815260200190815260200160002060006101000a81548160ff02191690831515021790555081848460405180838380828437808301925050509250505060405180910390208673ffffffffffffffffffffffffffffffffffffffff167f4f0c3ac494566418a881d1dcc860ddf8007bffa4777f2ac212d2711461d5611e60405160405180910390a4505050505050565b6000809054906101000a900473ffffffffffffffffffffffffffffffffffffffff1673ffffffffffffffffffffffffffffffffffffffff163373ffffffffffffffffffffffffffffffffffffffff16141515611887576040517f08c379a000000000000000000000000000000000000000000000000000000000815260040180806020018281038252601c8152602001807f43616c6c6572206973206e6f7420636f6e7472616374206f776e65720000000081525060200191505060405180910390fd5b60018060008373ffffffffffffffffffffffffffffffffffffffff1673ffffffffffffffffffffffffffffffffffffffff16815260200190815260200160002060006101000a81548160ff02191690831515021790555050565b60011515600160003373ffffffffffffffffffffffffffffffffffffffff1673ffffffffffffffffffffffffffffffffffffffff16815260200190815260200160002060009054906101000a900460ff161515148061198c57506000809054906101000a900473ffffffffffffffffffffffffffffffffffffffff1673ffffffffffffffffffffffffffffffffffffffff163373ffffffffffffffffffffffffffffffffffffffff16145b1515611a00576040517f08c379a00000000000000000000000000000000000000000000000000000000081526004018080602001828103825260188152602001807f43616c6c6572206973206e6f7420617574686f72697a6564000000000000000081525060200191505060405180910390fd5b6000611a518585858080601f016020809104026020016040519081016040528093929190818152602001838380828437600081840152601f19601f820116905080830192505050505050508461246b565b9050611aa834600260008873ffffffffffffffffffffffffffffffffffffffff1673ffffffffffffffffffffffffffffffffffffffff1681526020019081526020016000206002015461244a90919063ffffffff16565b600260008773ffffffffffffffffffffffffffffffffffffffff1673ffffffffffffffffffffffffffffffffffffffff168152602001908152602001600020600201819055506004600082815260200190815260200160002060a0604051908101604052808873ffffffffffffffffffffffffffffffffffffffff1681526020013481526020018773ffffffffffffffffffffffffffffffffffffffff16815260200186868080601f016020809104026020016040519081016040528093929190818152602001838380828437600081840152601f19601f820116905080830192505050505050508152602001848152509080600181540180825580915050906001820390600052602060002090600502016000909192909190915060008201518160000160006101000a81548173ffffffffffffffffffffffffffffffffffffffff021916908373ffffffffffffffffffffffffffffffffffffffff1602179055506020820151816001015560408201518160020160006101000a81548173ffffffffffffffffffffffffffffffffffffffff021916908373ffffffffffffffffffffffffffffffffffffffff1602179055506060820151816003019080519060200190611c789291906127c7565b50608082015181600401555050508573ffffffffffffffffffffffffffffffffffffffff167f3b60dbc374875ac3ae5caf5ab635ee804810d6809cfe1a5157d495d9d67679763487878787604051808681526020018573ffffffffffffffffffffffffffffffffffffffff1673ffffffffffffffffffffffffffffffffffffffff168152602001806020018381526020018281038252858582818152602001925080828437600081840152601f19601f820116905080830192505050965050505050505060405180910390a2505050505050565b600060011515600160003373ffffffffffffffffffffffffffffffffffffffff1673ffffffffffffffffffffffffffffffffffffffff16815260200190815260200160002060009054906101000a900460ff1615151480611df957506000809054906101000a900473ffffffffffffffffffffffffffffffffffffffff1673ffffffffffffffffffffffffffffffffffffffff163373ffffffffffffffffffffffffffffffffffffffff16145b1515611e6d576040517f08c379a00000000000000000000000000000000000000000000000000000000081526004018080602001828103825260188152602001807f43616c6c6572206973206e6f7420617574686f72697a6564000000000000000081525060200191505060405180910390fd5b600260008373ffffffffffffffffffffffffffffffffffffffff1673ffffffffffffffffffffffffffffffffffffffff16815260200190815260200160002060010160159054906101000a900460ff169050919050565b6000809054906101000a900473ffffffffffffffffffffffffffffffffffffffff1673ffffffffffffffffffffffffffffffffffffffff163373ffffffffffffffffffffffffffffffffffffffff16141515611f88576040517f08c379a000000000000000000000000000000000000000000000000000000000815260040180806020018281038252601c8152602001807f43616c6c6572206973206e6f7420636f6e7472616374206f776e65720000000081525060200191505060405180910390fd5b600160008273ffffffffffffffffffffffffffffffffffffffff1673ffffffffffffffffffffffffffffffffffffffff16815260200190815260200160002060006101000a81549060ff021916905550565b6000600354905090565b60011515600160003373ffffffffffffffffffffffffffffffffffffffff1673ffffffffffffffffffffffffffffffffffffffff16815260200190815260200160002060009054906101000a900460ff161515148061208f57506000809054906101000a900473ffffffffffffffffffffffffffffffffffffffff1673ffffffffffffffffffffffffffffffffffffffff163373ffffffffffffffffffffffffffffffffffffffff16145b1515612103576040517f08c379a00000000000000000000000000000000000000000000000000000000081526004018080602001828103825260188152602001807f43616c6c6572206973206e6f7420617574686f72697a6564000000000000000081525060200191505060405180910390fd5b8181600260008673ffffffffffffffffffffffffffffffffffffffff1673ffffffffffffffffffffffffffffffffffffffff1681526020019081526020016000206000019190612154929190612847565b50505050565b600060011515600160003373ffffffffffffffffffffffffffffffffffffffff1673ffffffffffffffffffffffffffffffffffffffff16815260200190815260200160002060009054906101000a900460ff161515148061220757506000809054906101000a900473ffffffffffffffffffffffffffffffffffffffff1673ffffffffffffffffffffffffffffffffffffffff163373ffffffffffffffffffffffffffffffffffffffff16145b151561227b576040517f08c379a00000000000000000000000000000000000000000000000000000000081526004018080602001828103825260188152602001807f43616c6c6572206973206e6f7420617574686f72697a6564000000000000000081525060200191505060405180910390fd5b600660008373ffffffffffffffffffffffffffffffffffffffff1673ffffffffffffffffffffffffffffffffffffffff168152602001908152602001600020549050919050565b60008060149054906101000a900460ff16905090565b60011515600160003373ffffffffffffffffffffffffffffffffffffffff1673ffffffffffffffffffffffffffffffffffffffff16815260200190815260200160002060009054906101000a900460ff161515148061238357506000809054906101000a900473ffffffffffffffffffffffffffffffffffffffff1673ffffffffffffffffffffffffffffffffffffffff163373ffffffffffffffffffffffffffffffffffffffff16145b15156123f7576040517f08c379a00000000000000000000000000000000000000000000000000000000081526004018080602001828103825260188152602001807f43616c6c6572206973206e6f7420617574686f72697a6564000000000000000081525060200191505060405180910390fd5b6124458383838080601f016020809104026020016040519081016040528093929190818152602001838380828437600081840152601f19601f820116905080830192505050505050506125bf565b505050565b600080828401905083811015151561246157600080fd5b8091505092915050565b6000838383604051602001808473ffffffffffffffffffffffffffffffffffffffff1673ffffffffffffffffffffffffffffffffffffffff166c0100000000000000000000000002815260140183805190602001908083835b6020831015156124e957805182526020820191506020810190506020830392506124c4565b6001836020036101000a03801982511681845116808217855250505050505090500182815260200193505050506040516020818303038152906040528051906020012090509392505050565b600080831415612548576000905061256d565b6000828402905082848281151561255b57fe5b0414151561256857600080fd5b809150505b92915050565b6000808211151561258357600080fd5b6000828481151561259057fe5b0490508091505092915050565b60008282111515156125ae57600080fd5b600082840390508091505092915050565b6125d5600160035461244a90919063ffffffff16565b60038190555060a0604051908101604052808281526020018373ffffffffffffffffffffffffffffffffffffffff1681526020016001151581526020016000151581526020016000815250600260008473ffffffffffffffffffffffffffffffffffffffff1673ffffffffffffffffffffffffffffffffffffffff168152602001908152602001600020600082015181600001908051906020019061267b9291906127c7565b5060208201518160010160006101000a81548173ffffffffffffffffffffffffffffffffffffffff021916908373ffffffffffffffffffffffffffffffffffffffff16021790555060408201518160010160146101000a81548160ff02191690831515021790555060608201518160010160156101000a81548160ff021916908315150217905550608082015181600201559050508173ffffffffffffffffffffffffffffffffffffffff167f472401a2a0d12f4350699788282af698829c7506b130af7979dbf561cecc0605826040518080602001828103825283818151815260200191508051906020019080838360005b8381101561278957808201518184015260208101905061276e565b50505050905090810190601f1680156127b65780820380516001836020036101000a031916815260200191505b509250505060405180910390a25050565b828054600181600116156101000203166002900490600052602060002090601f016020900481019282601f1061280857805160ff1916838001178555612836565b82800160010185558215612836579182015b8281111561283557825182559160200191906001019061281a565b5b50905061284391906128c7565b5090565b828054600181600116156101000203166002900490600052602060002090601f016020900481019282601f1061288857803560ff19168380011785556128b6565b828001600101855582156128b6579182015b828111156128b557823582559160200191906001019061289a565b5b5090506128c391906128c7565b5090565b6128e991905b808211156128e55760008160009055506001016128cd565b5090565b9056fe53656e646572206d75737420626520612072656769737465726564206169726c696e65616c7265616479206265656e20637265646974656420666f72207468697320666c69676874a165627a7a7230582004981eb33af736af68497601b4adc260e96905311ba79ce92b9d9595385a6efe0029",
  "source": "pragma solidity >=0.5.0 <0.6.0;\n\nimport \"../node_modules/openzeppelin-solidity/contracts/math/SafeMath.sol\";\n\ncontract FlightSuretyData {\n\n    using SafeMath for uint256;\n\n    /********************************************************************************************/\n    /*                                       DATA VARIABLES                                     */\n    /********************************************************************************************/\n\n    address private contractOwner;                                    \n    bool private operational = true;                                  \n    mapping(address => bool) private authorizeds;              \n\n    struct Airline {\n      string name;\n        address account;\n        bool isRegistered;\n        bool funded;\n        uint256 funds;  \n     }\n\n    mapping(address => Airline) private airlines;\n    uint256 internal countAirlines = 0;\n\n    struct FlightInsurance {\n        address payable insuree;  \n        uint256 amountPaid;          \n        address airline;\n        string flight;\n        uint256 scheduledDepartureTime;\n    }\n\n    mapping(bytes32 => FlightInsurance[]) private flightInsurances;\n    mapping(bytes32 => bool) private compensationsCredited;               \n    mapping(address => uint256) private insureeToPayout;                 \n\n    event AirlineRegistered(address indexed account, string name);\n    event AirlineFunded(address indexed account, uint256 amount);\n    event InsuranceBought(address indexed passenger, uint256 price, address airline, string flight, uint256 scheduledDepartureTime);\n    event InsuranceCreditAvailable(address indexed airline, string indexed flight, uint256 indexed scheduledDepartureTime);\n    event InsuranceCredited(address indexed insuree, uint256 amount);\n    event InsurancePaid(address indexed insuree, uint256 amount);\n\n\n    /********************************************************************************************/\n    /*                                       EVENT DEFINITIONS                                  */\n    /********************************************************************************************/\n\n\n    /**\n    * @dev Constructor\n    *      The deploying account becomes contractOwner\n    */\n    constructor(address firstAirline, string memory name) public {\n        contractOwner = msg.sender;\n        addAirline(firstAirline, name);\n    }\n\n    /********************************************************************************************/\n    /*                                       FUNCTION MODIFIERS                                 */\n    /********************************************************************************************/\n\n    // Modifiers help avoid duplication of code. They are typically used to validate something\n    // before a function is allowed to be executed.\n\n    /**\n    * @dev Modifier that requires the \"operational\" boolean variable to be \"true\"\n    *      This is used on all state changing functions to pause the contract in \n    *      the event there is an issue that needs to be fixed\n    */\n    modifier requireIsOperational() {\n        require(operational, \"Contract is currently not operational\");\n        _;  // All modifiers require an \"_\" which indicates where the function body will be added\n    }\n\n    /**\n    * @dev Modifier that requires the caller address either be registered as \"authorized\" or be the owner of the contract.\n    *      This is used to avoid that other accounts may alter this data contract.\n    */\n    modifier requireIsCallerAuthorized() {\n        require(authorizeds[msg.sender] == true || msg.sender == contractOwner, \"Caller is not authorized\");\n        _;\n    }\n\n    /**\n    * @dev Modifier that requires the \"ContractOwner\" account to be the function caller\n    */\n    modifier requireContractOwner() {\n        require(msg.sender == contractOwner, \"Caller is not contract owner\");\n        _;\n    }\n\n\n    /********************************************************************************************/\n    /*                                       UTILITY FUNCTIONS                                  */\n    /********************************************************************************************/\n\n    /**\n    * @dev Get operating status of contract\n    *\n    * @return A bool that is the current operating status\n    */      \n    function isOperational() external view returns(bool) {\n        return operational;\n    }\n\n\n    /**\n    * @dev Sets contract operations on/off\n    *\n    * When operational mode is disabled, all write transactions except for this one will fail\n    */    \n    function setOperatingStatus(bool mode) external requireContractOwner {\n        operational = mode;\n    }\n\n    /**\n    * @dev Add a new address to the list of authorized callers\n    *      Can only be called by the contract owner\n    */    \n    function authorizeCaller(address contractAddress) external requireContractOwner {\n        authorizeds[contractAddress] = true;\n    }\n\n    /**\n    * @dev Removes an address from the list of authorized callers\n    */    \n    function deauthorizeContract(address contractAddress) external requireContractOwner {\n        delete authorizeds[contractAddress];\n    }\n\n    /********************************************************************************************/\n    /*                                     SMART CONTRACT FUNCTIONS                             */\n    /********************************************************************************************/\n\n   /**\n    * @dev Add an airline to the registration queue\n    *      Can only be called from FlightSuretyApp contract\n    */   \n    function registerAirline(address account, string calldata name) external requireIsCallerAuthorized {\n        addAirline(account, name);\n    }\n\n    function addAirline(address account, string memory name) private {\n        countAirlines = countAirlines.add(1);\n        airlines[account] = Airline(name, account, true, false, 0);\n        emit AirlineRegistered(account, name);\n    }\n\n   /**\n    * @dev Indicate if the address belongs to an airline or not\n    */   \n    function isAirline(address account) public view returns(bool) {\n        return airlines[account].isRegistered == true;\n    }\n\n   /**\n    * @dev Get the quantity of registered airlines\n    */   \n    function getNumAirlines() external view returns(uint256) {\n        return countAirlines;\n    }\n\n   /**\n    * @dev Update the name of the airline\n    */   \n    function updateAirlineName(address airline, string calldata newName) external requireIsCallerAuthorized {\n        airlines[airline].name = newName;\n    }\n\n   /**\n    * @dev Initial funding for the insurance. Unless there are too many delayed flights\n    *      resulting in insurance payouts, the contract should be self-sustaining\n    */   \n    function fund(address airline) external payable requireIsCallerAuthorized {\n        incrementFunds(airline, msg.value);\n        airlines[airline].funded = true;   \n        emit AirlineFunded(airline, msg.value);\n    }\n\n    // App contract checked for enough funds, the fallback function just increments it directly\n    function incrementFunds(address airline, uint256 value) private {\n        airlines[airline].funds = airlines[airline].funds.add(value);\n    }\n\n   /**\n    * @dev Indicate if the airline already received the required initial funding\n    */   \n    function funded(address airline) external view requireIsCallerAuthorized returns(bool) {\n        return airlines[airline].funded;\n    }\n\n   /**\n    * @dev Return the current funds of the airline, just in case some check becomes necessary.\n    */   \n    function getCurrentFunds(address airline) external view requireIsCallerAuthorized returns(uint256) {\n        return airlines[airline].funds;\n    }\n\n   /**\n    * @dev Buy insurance for a flight\n    */   \n    function buy(address payable byer, address airline, string calldata flight, uint256 scheduledDepartureTime) external payable requireIsCallerAuthorized {\n        bytes32 flightKey = getFlightKey(airline, flight, scheduledDepartureTime);\n        airlines[airline].funds = airlines[airline].funds.add(msg.value);  // assuming that the insurance amount is attached to the airline funds\n        flightInsurances[flightKey].push(FlightInsurance(byer, msg.value, airline, flight, scheduledDepartureTime));\n        emit InsuranceBought(byer, msg.value, airline, flight, scheduledDepartureTime);\n    }\n\n    /**\n     *  @dev Credits payouts to insurees\n    */\n    function creditInsurees(uint256 percentage, address airline, string calldata flight, uint256 scheduledDepartureTime) external requireIsCallerAuthorized {\n        bytes32 flightKey = getFlightKey(airline, flight, scheduledDepartureTime);\n        require(!compensationsCredited[flightKey], \"already been credited for this flight\");\n        for (uint i=0; i < flightInsurances[flightKey].length; i++) {    // add credits to each insuree who bought insurance for this flight\n            address insuree = flightInsurances[flightKey][i].insuree;\n            uint256 amountToReceive = flightInsurances[flightKey][i].amountPaid.mul(percentage).div(100);\n            insureeToPayout[insuree] = insureeToPayout[insuree].add(amountToReceive);\n            airlines[airline].funds = airlines[airline].funds.sub(amountToReceive);\n            emit InsuranceCredited(insuree, amountToReceive);\n        }\n        compensationsCredited[flightKey] = true;\n        emit InsuranceCreditAvailable(airline, flight, scheduledDepartureTime);\n    }\n\n    /**\n     *  @dev Transfers eligible payout funds to insuree\n    */\n    function pay(address payable insuree) external requireIsCallerAuthorized {\n        uint256 amount = insureeToPayout[insuree];\n        delete(insureeToPayout[insuree]);\n        insuree.transfer(amount);\n        emit InsurancePaid(insuree, amount);\n    }\n\n    /**\n     *  @dev Return the amount paid by the insuree when buying the insurance.\n    */\n    function getAmountPaidByInsuree(address payable insuree, \n                                    address airline, \n                                    string calldata flight, \n                                    uint256 scheduledDepartureTime) external view requireIsCallerAuthorized returns(uint256 amount) \n    {\n        amount = 0;\n        bytes32 flightKey = getFlightKey(airline, flight, scheduledDepartureTime);\n        for (uint i=0; i < flightInsurances[flightKey].length; i++) {\n            if (flightInsurances[flightKey][i].insuree == insuree) {\n                amount = flightInsurances[flightKey][i].amountPaid;\n                break;\n            }\n        }\n    }\n\n    /**\n     *  @dev Return the amount paid by the insuree when buying the insurance.\n    */\n    function getAmountToBeReceived(address payable insuree) external view requireIsCallerAuthorized returns(uint256 amount) {\n        return insureeToPayout[insuree];\n    }\n\n    function getFlightKey(address airline, string memory flight, uint256 scheduledDepartureTime) internal pure returns(bytes32) {\n        return keccak256(abi.encodePacked(airline, flight, scheduledDepartureTime));\n    }\n\n    /**\n    * @dev Fallback function for funding smart contract.\n    */\n    function() external payable {\n        require(msg.data.length == 0, \" should be empty\");\n        require(isAirline(msg.sender), \"Sender must be a registered airline\");\n        incrementFunds(msg.sender, msg.value);\n    }\n\n}\n\n",
  "sourcePath": "/Users/cx812ng/Downloads/flightsurety-master 7/contracts/FlightSuretyData.sol",
  "compiler": {
    "name": "solc",
    "version": "0.5.2+commit.1df8f40c.Emscripten.clang"
  },
  "schemaVersion": "3.0.10",
  "updatedAt": "2020-04-15T21:59:52.015Z",
  "devdoc": {
    "methods": {
      "authorizeCaller(address)": {
        "details": "Add a new address to the list of authorized callers     Can only be called by the contract owner"
      },
      "buy(address,address,string,uint256)": {
        "details": "Buy insurance for a flight"
      },
      "constructor": {
        "details": "Constructor     The deploying account becomes contractOwner"
      },
      "creditInsurees(uint256,address,string,uint256)": {
        "details": "Credits payouts to insurees"
      },
      "deauthorizeContract(address)": {
        "details": "Removes an address from the list of authorized callers"
      },
      "fund(address)": {
        "details": "Initial funding for the insurance. Unless there are too many delayed flights     resulting in insurance payouts, the contract should be self-sustaining"
      },
      "funded(address)": {
        "details": "Indicate if the airline already received the required initial funding"
      },
      "getAmountPaidByInsuree(address,address,string,uint256)": {
        "details": "Return the amount paid by the insuree when buying the insurance."
      },
      "getAmountToBeReceived(address)": {
        "details": "Return the amount paid by the insuree when buying the insurance."
      },
      "getCurrentFunds(address)": {
        "details": "Return the current funds of the airline, just in case some check becomes necessary."
      },
      "getNumAirlines()": {
        "details": "Get the quantity of registered airlines"
      },
      "isAirline(address)": {
        "details": "Indicate if the address belongs to an airline or not"
      },
      "isOperational()": {
        "details": "Get operating status of contract",
        "return": "A bool that is the current operating status"
      },
      "pay(address)": {
        "details": "Transfers eligible payout funds to insuree"
      },
      "registerAirline(address,string)": {
        "details": "Add an airline to the registration queue     Can only be called from FlightSuretyApp contract"
      },
      "setOperatingStatus(bool)": {
        "details": "Sets contract operations on/off    * When operational mode is disabled, all write transactions except for this one will fail"
      },
      "updateAirlineName(address,string)": {
        "details": "Update the name of the airline"
      }
    }
  },
  "userdoc": {
    "methods": {}
  }
}